:020000041000EA
:1000000000400020D5350000C51400003536000042
:1000100000000000000000000000000000000000E0
:10002000000000000000000000000000D1350000CA
:1000300000000000000000005D040000D135000059
:10004000550E0000F103000019060000D135000034
:10005000D1350000D1350000014B0000D135000042
:1000600089010000D1350000D1350000D1350000F4
:10007000D1350000D1350000F50D0000B1130000AE
:10008000D1350000D1350000D1350000D135000058
:10009000D1350000D135000005080000D135000041
:1000A000D1350000D1350000D13500001104000029
:1000B000D1350000D1350000D1350000B516000063
:1000C00000047047D0B502AF72B601200402154992
:1000D0000C60BFF34F8FBFF36F8FC00401F09EFA27
:1000E00011480168114A0A43026011480168FF2261
:1000F000914301600F48C16880221143C1601921FA
:100100000160C3689343C36041610B49C160002132
:10011000416001698068094804600948046062B66A
:10012000D0BDC04680E100E0E8000140212200008F
:1001300008E400E0201800410310000080E200E025
:1001400000E100E0074BDA6059600178064A11606F
:1001500001219960401C18605068022101435160E0
:100160007047C046D80400202018004104490861A7
:100170000448C168016805220A4302607047C0460E
:10018000D804002024180041F8B504AF274A50686D
:100190000E230340022B0ED00A2B0CD0042B27D1A8
:1001A000101F006822490B69D168002B21D0C0B212
:1001B00089B29847F8BD06201840022819D11C4D75
:1001C0006968A868814215D9131F2C6826781E60BB
:1001D000401CA860631C2B6081420AD11068022376
:1001E00098431060EA68002A03D0002408460FE014
:1001F000D068F8BD1168022B0ED10223994311601B
:10020000116840230B431360EA68002AF1D00024F0
:1002100021469047EC60F8BD422399431160EA689B
:10022000002AE6D000219047F8BDC04624180041BE
:10023000D8040020BCB504AF054601A80170222DEA
:1002400001D90120BCBD0C4601A9284600F01AF8CE
:10025000002808D028206843044908184068044949
:100260000C540020BCBD0220BCBDC046147300006D
:10027000EC040020E0B502AF01AA1180114600F0A5
:1002800039F88CBDF8B504AF2822424318488618C7
:10029000307A0024032828D8784400794000874425
:1002A000011C070BB27A087890421ED3F17A19E04C
:1002B00008884442444118E00024085FFFF700FF2B
:1002C0000546F16905F0A0F800280ED4306A2946E9
:1002D00005F09AF8002807D507E0F28908889042CF
:1002E00003D3318A814200D301242046F8BDC046A1
:1002F00014730000B0B502AF222801D90120B0BDAF
:100300000C460546FFF7BEFF00280CD028206843A6
:10031000064909184868064A10184A7A214604F026
:100320006DFC0020B0BD0220B0BDC04614730000BB
:10033000EC040020222801D90120704728224243E2
:10034000034880184068034A105C0870002070471A
:1003500014730000EC04002080B500AF00F002F838
:1003600080BDD4D480B500AF222801D9012080BD42
:1003700028224243054880184268054B9B18427A60
:100380000846194604F03AFC002080BD14730000B2
:10039000EC040020D0B502AF72B6032001F03EF9A4
:1003A0000E4802240460BFF34F8FBFF36F8F0C48D9
:1003B00000210160A320400001F052F9FF2000025B
:1003C00008490A6882430120800310180860064823
:1003D00004600648046062B6D0BDC04680E100E01B
:1003E0000810004000E400E080E200E000E100E0EE
:1003F00080B500AF02480068002800D0804780BD6B
:100400001C050020014908607047C0461C050020FB
:1004100001480121017070472005002080B500AF20
:1004200001F052F880BDD4D404480068002803D0FD
:1004300001200007024908607047C04634050020CB
:1004400004ED00E0FF20000403490A688243032012
:10045000800510180860704720ED00E080B500AFFF
:100460000348006880470120C0060249086080BD3B
:100470003405002004ED00E0014908607047C046E3
:100480003405002001480021017070473805002024
:1004900005490A78024200D0704701224A700A7862
:1004A00002430A707047C0463805002004490A78A4
:1004B000024204D001224A700A7882430A707047CF
:1004C0003805002080B500AF00F058FD00F0CEFFE9
:1004D00000F06CFD80BDD4D480B500AF72B60320AF
:1004E00001F09CF8094904200860BFF34F8FBFF367
:1004F0006F8FFF210904064A13688B431360054977
:1005000008600549086062B680BDC04680E100E031
:1005100000E400E080E200E000E100E0F8B504AFB4
:10052000411E89B2CD087C2D1FD801210902124A33
:10053000116005F077FF114A114B06F017F80024FF
:10054000104B224605F044F805F0E4FD01F090F868
:100550000D4E34700D48016802220A430260307863
:10056000002802D101F09AF8F9E77D2D01D300208F
:10057000F8BD0120F8BDC04618100040FCA9F1D21A
:100580004D6240400000F0BF3A050020F0100040EE
:10059000B0B502AF411E89B2CD087C2D19D801211A
:1005A00009020F4A116005F03DFF0E4A0E4B05F09F
:1005B000DDFF00240D4B224605F00AF805F0AAFDE8
:1005C00001F056F80A4804700A48016802220A43FA
:1005D00002607D2D01D30020B0BD0120B0BDC0461A
:1005E00018100040FCA9F1D24D6240400000F0BF5D
:1005F0003A050020F0100040014800787047C046DE
:100600003A05002080B500AF01F03AF80148012119
:10061000017080BD3A05002001480121017070473A
:100620003A05002080B500AF72B62448022101606F
:1006300001F034F800F0A0FF00242046214600F02D
:10064000C3FF62B6FFF73EFFFFF7FCFEFFF744FF74
:10065000FFF7A0FE1A480168012529430160FFF752
:1006600031FDFFF70FFF284600F0D4FC284600F0CC
:10067000E7FC284600F0FCFC00F0A2FC00F0BCFC0B
:1006800000F00EFD00F058FD28462146224600F0FD
:100690002DFE00F019FE0B49284600F09DFD044692
:1006A00000F03CFE02F02EF8204602F0BDF902F008
:1006B000C1F900F0F3FFFFF7B1FEF8E704300040A6
:1006C000F0100040CD780000F0B503AF8BB00124EE
:1006D00003AD20462946FFF72DFE2878062802D8CC
:1006E00003A8072103E0102802D303A80F210170FB
:1006F000600300F093FF72B6A105029120480160EB
:10070000BFF34F8FBFF36F8F07A80026068102212A
:100710000191C17186804121890041801949018080
:10072000067319490A680A6003A909784900174A3B
:10073000515A418100F0D0FE04AD2C70681C0B2290
:10074000314604F0B1FB284600F0EAFE104D291DA9
:100750000198FFF701FE20202946FFF7EBFDFF205F
:1007600000040C490A688243E005101808600A4832
:10077000029901600948016062B60BB0F0BDC04645
:1007800080E100E0010300006800014004790000FE
:100790003C05002014E400E080E200E000E100E01D
:1007A000024A9060D16010617047C0463C0500204D
:1007B00002480121417040697047C0463C05002055
:1007C00001480021417070473C05002001498861C3
:1007D0007047C0463C05002004480021C180044801
:1007E000016801220A4302607047C0463C050020B0
:1007F00004100042024801680122914301607047E1
:1008000004100042BCB504AF01A80025058069466C
:100810000D801C4A12680F239A4302801A48019ADD
:1008200042400A80194C2078002803D0684600888E
:1008300004F022F82169E08842008918009A0A81B0
:10084000A188491E814202DD401CE080BCBDE580DC
:100850006078012802D10120FFF71AFEA078A16874
:10086000E2680028134600D10B466361002800D1DE
:100870001146216101214840A070A0690028E5D0FF
:100880008047BCBD38100042FF7F00003C050020BF
:10089000FEB506AF00F08AF9264E0020B061F06187
:1008A0003062F060308170713080B070F11C0820CF
:1008B000214CA047311D05200190A047042002AD26
:1008C0002946A047287803281CD8C04678440079D8
:1008D00040008744010E060B194830620121C9020D
:1008E0000BE0174830620321890206E013483062AA
:1008F00009E01348306201994902124A13880B43F8
:10090000138000E0306A00F0B3F931460A31062066
:10091000FFF722FDB11D2020FFF70CFDFFF7DCFDE6
:100920007D20C000FFF7FAFD4B208000FFF7F6FDA9
:10093000FEBDC0465805002035030000790B0000BD
:10094000C90A0000000000200149C8607047C04685
:1009500058050020F0B503AF87B000F071F900F042
:100960009BF900F08BF906AD2C4828801B20000273
:1009700005A9088004A92A4A0A8003A9294A0A80ED
:10098000294E3179F27892010A432121090211435B
:1009900002AA1180F03001A908800124234A2846C8
:1009A000214600F06BF800F083F8284621461F4AE4
:1009B00000F064F800F07CF8B08C462803D10420E5
:1009C000FFF774FD02E00420FFF762FD05A8174A57
:1009D000174D2146A847174EB04704A82146134A91
:1009E000A847B04703A82146104AA847B04702A825
:1009F00021460E4AA847B04701A821460B4AA847FE
:100A0000B0473220FFF78AFD0020074908810C809B
:100A100000F042F900F05CF907B0F0BDFF93000070
:100A2000E02200001025000058050020A50A000063
:100A30007D0A0000B10A000080B500AF0348002124
:100A4000017000F029F900F0FBF880BD5805002086
:100A5000024A1061516190617047C04658050020FC
:100A6000024801218170C0697047C04658050020C6
:100A7000014800218170704758050020F8B504AF87
:100A800000920D460646064C0020607100F074F995
:100A90002434204631462A46009B00F027F9F8BD51
:100AA0005805002001480121417170475805002078
:100AB000D0B502AF034C6079002802D100F0EEFD02
:100AC000F9E7D0BD58050020BCB504AF284D6878C3
:100AD00001282AD100F060F926480221002422468C
:100AE000FFF7CCFF01A8048069460C802421695CD3
:100AF0002A462432D278120289180180A879002867
:100B000003D001A8008803F0B7FE01986946088069
:100B1000A969288942008918009A0A816989491EB1
:100B200081420ADD401C2881BCBD124802210022FE
:100B3000FFF7A4FF01206870BCBD2C81A8780128B4
:100B400002D10120FFF7A4FCE87929696A6900282D
:100B5000134600D10B46EB61002800D11146A96174
:100B600001214840E871E8680028E5D08047BCBD15
:100B70005805002000000020D0B502AF094C607875
:100B8000012807D100F0E4F8074804210022FFF70C
:100B900075FFD0BD044804210022FFF76FFF01203C
:100BA0006070D0BD5805002004000020B0B502AF31
:100BB00072B600F045F80120850318490D60BFF3B7
:100BC0004F8FBFF36F8F0404204600F027FD1448B9
:100BD000016C144A0A43026401682143016000F079
:100BE00027FD114916200860002048600F4ACA609E
:100BF0008860FF2109040E4AD3688B43D3601168D3
:100C000080230B437F218B4313600A4908600A4805
:100C100005600A48056062B6B0BDC04680E100E0EC
:100C20004800014013121112000800410350000057
:100C300000E400E08405002080E200E000E100E044
:100C400072B6084841680322914341600649012277
:100C50000A60BFF34F8FBFF36F8F04490A600260D1
:100C600062B670470401004080E100E080E200E0ED
:100C7000014908607047C0468405002001208003B8
:100C8000034908600348016804220A430260704770
:100C900000E100E00408004172B60A48016804223D
:100CA0009143016001218903074A1160BFF34F8F0F
:100CB000BFF36F8F054A1160C16889B2016162B6E6
:100CC0007047C0460408004180E100E080E200E097
:100CD00080B500AF044901200860002122230A46A4
:100CE00000F0D8FB80BDC04600E100E0F8B504AFDD
:100CF0000446154EF060316100257560E843002C14
:100D000020D000291ED0B360501E032814D88000C4
:100D100001A108588746C046350D0000310D00007E
:100D20002D0D0000290D000000F054F800F052F8DD
:100D300000F050F800F04EF80448016801220A4320
:100D400002602846F8BDC046840500200008004126
:100D50000748C168074A13680B800B460833C36015
:100D600010684880106888801068C8807047C04646
:100D700084050020200800410648016801229143B3
:100D80000160110202680A43026002688A4302603D
:100D90007047C046000800410448C168044A13680F
:100DA0000B800B1DC36010684880704784050020CD
:100DB000200800410548C168054A13680B808B1D57
:100DC000C3601068488010688880704784050020E0
:100DD00020080041054801690A88054B1A60891CF2
:100DE00001614168491C41607047C046840500208C
:100DF0001C080041B0B502AF1448016889B24160D7
:100E0000134D6C68611E032919D8C04679440979CD
:100E100049008F44010D070AE96800690880881CB1
:100E2000E8600CE0FFF7C6FF09E0FFF791FF06E07E
:100E3000E96802690A800A1DEA6000694880AA68B8
:100E4000002A02D0002120469047B0BD1008004182
:100E50008405002080B500AF04480068002800D059
:100E6000804703480121016080BDC0468405002001
:100E700004010040D0B502AF0020084C2146FFF726
:100E800059FA2078002802D0FFF702FD01E0FFF7B1
:100E90001BFC034800F006F8D0BDC04698050020B2
:100EA000C10E000080B500AF04490978002902D0C6
:100EB000FFF74AFD80BDFFF789FC80BD9805002043
:100EC00080B500AFFFF7B0FA80BDD4D480B500AFD5
:100ED000044A1278002A02D0FFF7BAFD80BDFFF75E
:100EE0005FFC80BD9805002080B500AF0448007805
:100EF000002802D0FFF7B4FD80BDFFF759FC80BD8C
:100F00009805002080B500AF04480078002802D082
:100F1000FFF7AEFD80BDFFF753FC80BD98050020B4
:100F200080B500AF04480078002802D0FFF712FD1A
:100F300080BDFFF751FC80BD9805002080B500AF53
:100F400004480078002802D0FFF776FD80BDFFF747
:100F500051FC80BD98050020002804D002680A4397
:100F600002600220704700207047002804D0026809
:100F70008A430260012070470020704780B500AFAF
:100F80000120400203490A6802430A6000F004F8A5
:100F900080BDC0468C00014080B500AF02482021D2
:100FA000FFF7E3FF80BDC0468400014080B500AF7D
:100FB00002482021FFF7D0FF80BDC04684000140D9
:100FC00080B500AF0120400403490A6802430A606B
:100FD00000F004F880BDC0468C00014080B500AF31
:100FE00003484021FFF7C1FF0249087080BDC04699
:100FF000840001400C00002080B500AF0348402170
:10100000FFF7AAFF0249087080BDC0468400014076
:101010000C000020401E414241410901074802687E
:1010200010239A435118016081683F2291438160E7
:10103000816802220A4382607047C046A4000140D2
:10104000401E4142414149010848026820239A4319
:10105000511801603F21090282688A4382600121A0
:10106000490282680A4382607047C046A40001407A
:10107000401E4142414189010848026840239A4389
:10108000511801603F21090482688A43826001216E
:10109000490482680A4382607047C046A400014048
:1010A000B0B502AF72B60124E50316480560BFF380
:1010B0004F8FBFF36F8F600500F0B0FA12484168A0
:1010C000124A0A4342608168114A0A4382600168F9
:1010D00004220A43026000F025F80F21204600F0A8
:1010E00027F90C48002101704170FF2000060A49D1
:1010F0000A6882430A60094805600948056062B6CB
:10110000B0BDC04680E100E0E40001400000022BD9
:101110002B020000990500200CE400E080E200E0D2
:1011200000E100E080B500AF02482021FFF71DFF7D
:1011300080BDC046E4000140F0B503AF85B068460D
:101140001049142203F05AFDFFF7C6F96420FFF797
:10115000E5F900260C4C142E12D2684681197C2029
:101160000222234600F004F90A2E01D0012500E0F6
:10117000C82500F015F82846FFF7D0F9B61CEAE7B5
:1011800005B0F0BD247900008D110000481E4142D9
:1011900041410248417001210170704799050020CA
:1011A000D0B502AF0B4C002020700A20FFF7F0F9F9
:1011B0002078002806D1FFF71FFA002802D100F09E
:1011C0006DFAF5E7FFF718FA002801D1FFF71AFAD0
:1011D000D0BDC04699050020D0B502AF0C4600F046
:1011E0000FF801460020002903D00449497800295E
:1011F00000D0D0BD204600F023F8D0BD99050020D6
:10120000BCB504AF01A900240C80451E1F2D0FD8CA
:10121000102800D93030401E8022024301A94A70B4
:101220007C200222054B00F0A3F8072000F024F8F0
:10123000202D00D201242046BCBDC0468D110000E7
:10124000D0B502AF86B005AA00211170694600F042
:1012500021F80446002809D005A802787C206946B8
:10126000044B00F085F8092000F006F8204606B08F
:10127000D0BDC0468D110000D0B502AF0446FFF7C7
:101280008FFF60000249085AFFF748F9D0BDC046F9
:10129000E4780000F8B504AF16460D46044603F0A6
:1012A0007FFE01463070C2B20020002A0BD0102A07
:1012B00009D8481C3070402028703278681C2146BC
:1012C00003F09CFC0120F8BDDCB504AF0120000256
:1012D00001A908807C200224034B224600F048F834
:1012E0002046FFF7C9FFDCBD8D110000DCB504AF5F
:1012F0000B4601A900240C705B00800018431043CA
:10130000082202434A707C200222034B00F030F88E
:101310000520FFF7B1FFDCBD8D11000080B500AFE7
:1013200002482021FFF718FE80BDC046E4000140BE
:1013300080220243832313400C4802681A43026050
:1013400001614169012291434161110303688B43AB
:101350000360D10203688B430360510202680A43B1
:1013600002600168402291430160704704280041F7
:10137000B0B502AF0C4C002525706160A260E5603D
:1013800023616570A5700121A17008494A68920621
:10139000FCD40A68102313430B608860086820227D
:1013A00002430A600020B0BD9C05002004280041D3
:1013B00080B500AF1F498A781F48032A0ED0012A42
:1013C0002DD1426882239A4342604268D2071ED1DF
:1013D0000A78002A23D103228A700EE04268822311
:1013E0009A4342604268D20711D18A68CB689A4218
:1013F0001DD9026808239A4302604A681278826005
:101400004868401C4860C868401CC86080BD002215
:101410008A7001224A70026820239A430260086998
:10142000002803D00A69C8684978904780BD002227
:101430008A70F0E79C05002004280041D0B502AF77
:1014400002280AD806224243074B00249C549A18CB
:1014500054709170D17011715171032801D3002023
:10146000D0BD0120D0BDC046B0050020D0B502AF30
:101470000648016809220A4302600120002421462F
:10148000FFF7DCFF02480470D0BDC0468C0001406D
:10149000C2050020F0B503AF094C6568FF26B543CF
:1014A000EB186360F3230340880008218843184346
:1014B000D100014320680F22904308432060F0BD13
:1014C000080100407047D4D402480121016030BFB8
:1014D0007047C046440000400F4900224A600A633A
:1014E0000E4ACA6202785200C3791B069A184378E2
:1014F0001B04D21843885BBA1343012292031A4398
:101500000A6042898A60828852BACA61027A407A45
:10151000400010430861704700100042FF0F0000B8
:1015200001214A0413490B68134002789A18437842
:101530005B001343827892001A43C378DB001343A5
:10154000027912011A4343795B01134382799201B4
:101550001A43C379DB011343027A12021A43437A16
:101560005B021343827A92021A43C07AC00210438C
:101570000860704718100042D0B502AF0120010288
:101580000F4C22688A432260616803220A40012AC4
:1015900012D00021616121680A4A0A406332226048
:1015A000010322680A432260410322688A432260C1
:1015B000606001E000F072F8A0684007FAD4D0BD86
:1015C000000300400030FFFFB0B502AF114C2268AD
:1015D000114B13406033236001252A032368934392
:1015E000C007C00C18182060680322688243C8072F
:1015F000800C10182060A802216801432160606AF5
:10160000400402D400F04AF8F9E7280221680143B7
:101610002160B0BD000300400030FFFF03490A68AD
:1016200002430A604A6882434A6070474C000040A7
:10163000D0B502AF09480268036801218B430360FB
:101640000B0204681C43046004689C430460D207D6
:1016500002D002680A430260D0BDC04600080041C3
:10166000024900224A6008607047C04600100040EE
:10167000024900224A6008607047C04610100040CE
:10168000044801680222914301600348002101607F
:101690007047C046F41000401410004004485A211E
:1016A00001600168C907FAD0A52101607047C046F2
:1016B000003000400120C007014908607047C04663
:1016C00080E200E0F8B504AF0D4604460021084A68
:1016D00003F0EAFB68882988EA88AB880125ED02D7
:1016E0008C26A5538C34A381E28121816081F8BDD1
:1016F000A2100000F0B503AF85B004468C26805BD5
:10170000039025468C352889049068890290A88921
:101710000190E88900900021074A204603F0C4FBAD
:101720000398A0530098E8810198A88102986881E5
:101730000498288105B0F0BDA2100000D0B502AF1A
:1017400002468720135C0020002B00D0D0BD13463A
:1017500087335B78002BF9D14129F7D30123DC02D1
:10176000A142F3D88C3211801846D0BDF0B503AF3A
:1017700089B00692049106466048301805904720CB
:1017800080003018029030469C30079034468034F8
:1017900000210698814200D1AEE0207A002800D0D6
:1017A000AAE00891480004990B5EE079002831D046
:1017B00060894100079A5352401C608119B2C913D5
:1017C0001D464B40591A8AB2059B9B889A4201D903
:1017D000059A91800E21615E2B46691ACA17514005
:1017E000891A89B2228A8A4200D22182228B8A42B5
:1017F00043D9A17C002942D1618B00293FD082B21C
:10180000403191423BD800206081E0710599888089
:10181000088034E06088402835D1A079002832D093
:101820000420205E181AC1174840401A80B2A18ACD
:10183000814228D818B2C01319464140081A81B213
:10184000E28A91421FD3009001937F21CA432388EB
:1018500000250394002A21D0079880182C469DB2B9
:101860006D00755F3146802685530E46581C3F2318
:1018700003406519039C921CECE70121A174A18926
:1018800082B28A422BD0304619461D4600F038F805
:101890000120A071A5800899491C7AE7402005998C
:1018A00048800298019B03800098888041206081D5
:1018B0000120E071EA17920EA9188911E18109B29D
:1018C000591ACA175140891A21828AB2218B914232
:1018D00000D900204A424A410243A274D3E7059945
:1018E00008800020E07101252572304619461E4609
:1018F00000F006F8A571A68009B0F0BD9C100000AC
:101900008022835A5B00C152815A491C3F230B40FD
:101910008352803041883F2901D8491C418070475B
:10192000F0B503AF85B006460020002908D00C466C
:10193000334687335978002902D11978002901D01C
:1019400005B0F0BD31468C31039109880029F7D0EC
:1019500000931B48301804903546843502969C3617
:101960000196EB88561E96421FD28B421DD22088CC
:101970005900019A5052591CE98001B2C9134840DC
:10198000401A81B2049B9A88914200D99880002025
:10199000215E0298FFF7B4FF0120A87020882880FC
:1019A000A41C039801883246DBE70020049C608079
:1019B00001208B42C4D10122009B5A702180BFE7D5
:1019C0009C1000008821405C70478821415C002900
:1019D00001D1084670479C307047D4D40449002296
:1019E00042528823C25441188A808830428070470E
:1019F0009C10000080B500AF3321CA00002103F025
:101A000053FA80BDF0B503AF87B019231C01035B07
:101A10000519002908D0FF2262322F32934238D2B2
:101A20005A1C2A80C15440E0002B3ED00192039002
:101A3000401C0690FF22029276320024264604952E
:101A40009C4236D20398005D0590002827D0059867
:101A50002118491ECDB2E1B28D420BD0611C9942D2
:101A60001DD296421BD80698045D36488455761CD4
:101A70000C46F0E7641C0598FF28049DE0D09C42CA
:101A8000DED296420BD800212E4DA955761C049D1E
:101A9000D6E700242C806868401C686006E00020BF
:101AA000049D28806868401C68600024204607B0B8
:101AB000F0BD00242C80152EF4D9224A107841283C
:101AC000E9D150785028E6D190784128E3D1D078F8
:101AD0004E28E0D110790128DDD1107C517C09021B
:101AE0000918029862308142D5D2084616308642E3
:101AF000D1D10391301F06901018164600F024F83B
:101B000005903046069900F02BF805998842C2D11D
:101B10007079019D2870B079F17909020818688000
:101B20003046083000F010F8039A2A8168600124DA
:101B3000002ABBD00A3512362846314603F05EF83B
:101B4000B4E7C046C305002001784278120251185C
:101B5000827812048918C078000608187047D4D417
:101B6000F0B503AF0023DA43094C8B420ED0C55CBD
:101B70006A400025072D07D80126164076422640E8
:101B8000520872406D1CF5E75B1CEEE7D043F0BDD8
:101B90002083B8EDF0B503AF85B01124A501002670
:101BA000FC68AC4276D803967D690495BD680295C1
:101BB0003A4D2C742B732A72A9716871012001901F
:101BC00028714E20E8704120A87050266E70287051
:101BD000200A6874180EE873180CA873180A687342
:101BE000100EE872100CA872100A6872080A0299A6
:101BF000E871002906D0002C04D028481230224673
:101C000002F0FCFF2646123628463146FFF7A8FFB1
:101C1000A855A919020ECA70020C8A70000A4870F1
:101C200004980228039E35D33869039016340020A7
:101C30000290019E3246002C26D0287801230028ED
:101C40000DD03146049EB1421CD20E4603998855F0
:101C5000711C521CD0B2FF2804D00E460DE0019337
:101C6000314602E002200190FF2200930398029B7C
:101C7000C254019886190291009A641E6D1C049842
:101C80008642D8D3002605E0039902980A54002022
:101C90008855761C304605B0F0BDC0463907002097
:101CA000F0B503AF89B00892002400285BD00793F9
:101CB00001252B03C2186D021688AE4253D10C4683
:101CC00011463A690592FA680492BA680692274A60
:101CD0000226D67500269675567516756423D3743C
:101CE00096744B8813761B0A537689882123D65421
:101CF0002023D654D477FF2393775677167791769F
:101D0000090AD176302E10D008998959174A9319AB
:101D1000222419550C0E25229C540A0C24241A55F1
:101D2000090A23229954361DECE710495331002D3E
:101D300008D002884B1E1A70120A0A706D1E891C88
:101D4000801CF4E7112080010849123100910190B4
:101D5000049802900598039022200021079A069B80
:101D6000FFF718FF0446204609B0F0BD39070020F0
:101D7000F0B503AF8BB00024002870D016460122C6
:101D800015030A9045192888002868D008950996F7
:101D90000793D502A84262D8324D4519ADB26D0AFB
:101DA000099EAE425BD22B462F4DA87700246C775C
:101DB0002C7706926422EA76AC766C762B76EC75FC
:101DC000AE75A974020AEA770A0E6A750A0C2A75BA
:101DD000090AE974089949882022A954090A21228C
:101DE000A9547102411A89B206984302994200D35C
:101DF00019463A690592FA680492BA6806920A0A84
:101E0000089B9B882526AA552422A9542222AB543C
:101E10001A0A2323EA54099A5206D20B0A98801808
:101E20002A4627320B46002B08D00688541E2670FF
:101E3000340A14705B1E921C801CF4E712354800B3
:101E4000143080B200950190049802900598039098
:101E500023200021079A069BFFF79CFE044620469C
:101E60000BB0F0BDFF01000039070020F0B503AF53
:101E700085B011486D4629465CC85CC10088088061
:101E800001208007FFF7CAFB00242046294601F005
:101E90003BFF204602F010F92025084E002D08D007
:101EA000301900214023224602F002FA6D1E403410
:101EB000F4E705B0F0BDC046387900004A7900006B
:101EC000014800687047C046900B0020BCB504AFC5
:101ED00004460020002B0CD0BD68002D09D01F2C1B
:101EE00007D80095A72040006043024C201800F05E
:101EF00003F8BCBD4A810000F0B503AF9FB00A9360
:101F000000260B91002900D1D2E01109A32900D2AB
:101F1000CEE0A325E9000B9E71180E91B9680891D7
:101F200005950921039108210D9102910121079145
:101F3000019161490091A724610004915F4A604BBF
:101F40003146604EB0474F20099005900495072018
:101F5000039010200C9002900D9801905A48009028
:101F60005A4A5B4B0B980E9D2946B0472620059098
:101F70000998049005200390202002900C9801906D
:101F800054480090544A554B28460B99B047544842
:101F9000002C04D000210180641E801CF8E700267C
:101FA000504B202E3DD013200C90810100200B9A25
:101FB0000D93002908D0002415571C576C43201896
:101FC000491E521C5B1CF4E704F094F90E96B50010
:101FD0004549495904F06AFE4449495903F05CFAFD
:101FE00006460024214603F00FFA002800D43446A8
:101FF0003F484159204604F059FE3E49495903F0F3
:102000004BFAC103C90F40183B494018000C0E9E03
:102010007100334A50520C9880010D9B1B18761C9E
:10202000BFE7FFF73BFBFFF721FF344804682C496B
:1020300000200E90024602F0D1F8314D02F00AF96C
:1020400046424641002805D0002D31D0FFF726FB3F
:102050006D1EF3E72948026894420E9802D2079950
:1020600009066418A21A27490A600FAC214602F03B
:10207000F9F80E9A0A9D0D92202A16D020880104A4
:102080002960002A0DD00D9880000E9414460A9AFB
:10209000105803F0B9F922460E9C002801D5D0B2A1
:1020A0000D90A41C2D1D521CE6E708980D99017097
:1020B00030461FB0F0BDC04674AB00000AAB000054
:1020C00054AB00002921000054AF000094AB000085
:1020D00014AF000014BA000094AF000094B90000DF
:1020E000940B002094BA0000945201001453010094
:1020F0009453010014540100FF7F000018E000E039
:10210000FEFF0000900B0020BCB504AF0446002089
:10211000002C08D0002B06D0BD68002D03D0009500
:102120002046FFF7E9FEBCBDF0B503AF93B00B92BC
:1021300002AA0BC2F8687C691090604301900022EB
:1021400038690590B8690E90F8690A90B8680090EF
:102150000F940598824260D00A985043039908185A
:10216000099006929000009909180891049908189E
:1021700007900021029A0A98814245D00D910023D0
:102180000C920B9E184610998B4215D01293119207
:102190003346002C08D0002551575D574D43281871
:1021A000641E521C5B1CF4E70E99119A52180F9C86
:1021B0003619129B5B1CE6E704F09CF80799096846
:1021C00004F074FD0899096803F066F905460026D5
:1021D000314603F019F901280FDB2846104903F0B6
:1021E00031F9002808D53F200106284603F054F9AC
:1021F00004F014F8064600E07F2609980D9946542D
:102200000C9A921C491CB6E70B98019940180B9048
:10221000FFF744FA069A521C9BE713B0F0BDC04684
:102220000000FD42F0B503AF87B0154802AD294666
:102230005CC85CC1008808800124A007FFF7EEF9A4
:102240002046294601F060FD204601F035FF01944B
:1022500062030C480025294602F028F820260A4C83
:10226000002E08D06019012118232A4602F020F818
:10227000761E1835F4E705480199017007B0F0BDE6
:1022800094540100A6540100A6740100E20C002041
:10229000F0B503AF8DB000260690002800D1B6E05F
:1022A0000D46002900D1B2E01446002A00D1AEE06C
:1022B00001221003069908180292510202888A42EC
:1022C00000D0A4E04088402800D0A0E05148007829
:1022D000002801D1FFF7A6FF069E803600210846A0
:1022E000802904D0069A525E8018891CF8E701956F
:1022F000009403F0FFFF7921C90504F0D7FC059095
:102300007F20C40507208101304600291ED003919B
:1023100000260490805F03F0EDFF059904F0E8FECD
:102320000546314603F070F8002802D50298C00730
:1023300045402846214603F085F8002800DC254664
:102340000399491E0498801C2C46DEE7324D334821
:10235000049033480390334E8020002824D002900C
:102360003088403080B240000699085E03F0C2FF1A
:10237000059904F0BDFE214603F0C2FC039A02CA8F
:10238000039204F0B5FE049A02CA049203F0B8FC6A
:10239000C103C90F401824494018000C2880029836
:1023A000401EB61CAD1CD8E701201B490026324652
:1023B00001F014FF1D4C01F04DFF002805D0002C4A
:1023C00025D0FFF76BF9641EF5E7012007AD0590F6
:1023D000294601F047FF0026019C06960C2E12D0DC
:1023E000288801042160002E09D006988000019AF7
:1023F000105803F009F8002801D5F0B20690AD1C82
:10240000241D761CEAE7009806990170059E304667
:102410000DB0F0BDE20C0020E40C0020A87A010011
:10242000A8780100A6770100FF7F0000FEFF0000F2
:1024300080B500AF002000F007F8024801210170CC
:1024400080BDC046E40D0020F0B503AF8DB0019013
:10245000174802AD29465CC85CC100880880012687
:10246000B007FFF7DBF83046294601F04DFC304657
:1024700001F022FE03200002019948430D490C1887
:102480000025202D11D00020182804D0215A07AA99
:102490001152801CF8E718231A466A4307A8012145
:1024A00001F006FF18346D1CEBE70DB0F0BDC0461F
:1024B00090860100A2860100F0B503AF89B00D46F9
:1024C00001460020079100297DD0002D7BD01446C5
:1024D000002A78D001231903079A511804935A024D
:1024E0000B8893426FD1498840296CD137480078D6
:1024F000002801D1FFF79CFF079E80360021084687
:10250000802904D0079A525E8018891CF8E702954A
:10251000039403F0EFFE7921C90504F0C7FB069090
:102520007F200190C5050720840130460895002CC6
:102530001CD000260590805F03F0DCFE069904F0B5
:10254000D7FD0546314602F05FFF002802D504980A
:10255000C0074540089E2846314602F073FF002818
:1025600000DC3546641E0598801CDFE70024184D0A
:10257000184EFE2C1ED01848005B403080B2400040
:102580000799085E03F0B6FE069904F0B1FD0899BC
:1025900003F0B6FB02CE04F0ABFD02CD03F0B0FBBE
:1025A000C103C90F40180D494018000C0C490853CD
:1025B000A41CDEE70198C001FE21094A505202988E
:1025C000039900F00FF809B0F0BDC046E40D0020FB
:1025D000A47F0100A87D0100A87C0100FF7F00000E
:1025E000E60D0020F0B503AF8DB001910026264D19
:1025F00005900390304606960528049038D0C0B266
:10260000FFF722FF012000242946224601F0E6FDC3
:102610001E4D01F01FFE002805D0002D2BD0FFF726
:102620003DF86D1EF5E7012007A901F01BFE039D93
:102630000296182C13D007A8005B01042960002E15
:1026400009D006988000059A105802F0DDFE002897
:1026500001D5F0B206902D1D761CA41CE9E7039865
:1026600030300390029E0C360498401C064DC3E7A0
:102670000198069901700498042801D8002000E010
:1026800001200DB0F0BDC046E60D0020FEFF0000A9
:10269000F8B504AF0D4601460020032917D8002DD8
:1026A00015D01446002A12D0080209490E18FFF767
:1026B000BFFE08488021002905D032880280491ECB
:1026C000B61C801CF7E728462146FFF78BFFF8BDB4
:1026D000A0810100E60D0020D0B502AF3C2800D358
:1026E0000020002903D08300054CE35A0B80002A08
:1026F00004D080000249081840881080D0BDC04630
:10270000A0850100F0B503AF85B0224803902248B0
:10271000029000250126214C28463146A04704207E
:1027200000900221A047052001900F21A0477102CF
:102730000620FDF79FFD08203146A04720202946AE
:10274000A047174802A9FEF7BDFF1648009901707F
:102750001548FFF74FF9FFF789FBFFF763FD1348B3
:10276000FDF750FE124813494160856001990160F0
:10277000FEF780FB104911484118FEF7A7FB1048EF
:10278000FDF77AFE0F48FDF7F1FC064845804670DC
:1027900005B0F0BDB80B1000BC02C8003502000047
:1027A000E60E0020F8320020881F0020C927000014
:1027B00010E000E0FFFFFF001406000020210020D1
:1027C000D92700003D2800000248416A491C4162A7
:1027D0007047C046F8320020B0B502AFFEF784FB68
:1027E0000146144D287B01280ED1083101204202F8
:1027F000114C2046FFF794F82046FFF7E3F8002835
:102800000ED0002028730BE02878002802D0401E4C
:10281000287005E00831012042020748FEF7A6FFB4
:10282000FEF770FB0448FFF7CDF8002801D0FEF753
:1028300085FBB0BDF8320020E60E0020F0B503AFF6
:10284000DDB004466F4D687C0028E1B207D1084630
:1028500041383A2801D3022000E0012068740228A0
:1028600023D16E4802AAFFF7CDF8002800D1AEE0D0
:10287000687A002800D0AAE002A80278501E152825
:1028800000D995E01646C046784400794000874458
:10289000980A8F8F8F8F8F8F8F8F8F8F8F8F8F5EF5
:1028A000717360626A7A02268BE00D2901D00A29D1
:1028B00034D100266E74AC7C002C00D18BE0687A99
:1028C000002800D087E028463C3006554E490522B6
:1028D000019002F085F9002831D04C490722019877
:1028E00002F07EF900282CD049490822019802F014
:1028F00077F90321002825D0009146490B22019841
:1029000002F06EF9009900281CD043490B2201986F
:1029100002F066F9002860D00A2113E0A87C0E2896
:1029200008D861391A2900D2203C29183C228C543D
:10293000401C02E00A2068720020A8744BE00121CC
:1029400000E002210020A872A874697243E0042606
:1029500037E0032635E002A90889002800D0887AEC
:10296000687306262DE002A80189012922D00020E3
:10297000C04320E0052624E002A8018902291DD0D9
:102980000020C0431BE002A80089254940184142AD
:102990004141A973A87B0726002812D002A90A3159
:1029A000A720019242001F4802F028F9019A08E08E
:1029B0000A2606E0807AE873082602E04089288328
:1029C00009260120A87203982862EA726E72200616
:1029D00001D1002068745DB0F0BD019A117B3A29E5
:1029E00001D3304601E0084630382F2900D8304660
:1029F000D17A202900D030460C2C00D8304668739C
:102A000006219FE7F8320020C0780000D27800004D
:102A1000C5780000D9780000B4780000881F002035
:102A2000B2FEFFFF482D0020014908717047C046E3
:102A3000F8320020F0B503AFFFB0B0B0F44D6879C4
:102A4000002807D000246C71F248FEF753FE6C702A
:102A5000FEF766FAA87900280CD00020A871ED488E
:102A6000FEF7BCFFA878022804D16878002801D1BD
:102A7000FEF756FAE879012800D0B2E0287A00285B
:102A800000D0AEE00020E871E34830A90F912E4657
:102A90003CC83CC100780870E04873A90E913CC85E
:102AA0003CC100780870708B0B9080B20A900A25A8
:102AB000294602F0D7FB0890294604F03BFB30265C
:102AC00030430F9CA07064210C910A9802F0CAFB5D
:102AD000294604F02FFB30436070CD48C07C401C79
:102AE0000A90C0B2294602F0BDFB09903030E07276
:102AF000C748808B079080B20590294602F0B2FB50
:102B00000446294604F016FB30430F99C871059816
:102B10000C9902F0A7FB294604F00CFB30430F99F7
:102B20008871F622089B53430B9818183043C870DD
:102B300008925443079820180D9630430872B44801
:102B4000806A401D2C46294602F08CFBB44988421D
:102B500000D308462546069406460790214602F013
:102B600081FB0446294604F0E5FA0D9908430E99C5
:102B7000887230460C9D294602F074FB0B90294662
:102B800002F070FB0D9A10430E9B98710920C04310
:102B9000099948430A99401830300F990873089DE5
:102BA0006C43079820181043D8720B98069E314644
:102BB00002F058FB0446314604F0BCFA0D9A10436B
:102BC0000E99C87165430B982818104308720C467B
:102BD00001200F99FEF700FB11202146FEF7FCFAB9
:102BE0008B4D8C48FEF7EEFE002800D139E2287AA2
:102BF000002801D000F02DFCAC788648FEF7E5FEF9
:102C0000002C30D0032C57D1002800D129E2297A9A
:102C1000002900D025E2834E31680D9173A972AA74
:102C2000FFF74AFC0124002868D00E9473987E496F
:102C300004F03CF80146739030680C9004250F9125
:102C4000F02D6CD073AC6059774904F02FF806462C
:102C500060510F9C214602F0F5FB002800DC26465F
:102C60002D1D3146EBE7002800D1FAE1297A002931
:102C700000D0EEE301242103415A6C4A8918490A25
:102C8000EA8A8A4200D3B5E0EB6A591CE962A96B73
:102C90002E4623256D010295FE4D019500250095D8
:102CA000FFF766F8002800D145E101463472F94883
:102CB000F94AFDF747FA49E1002800D1D1E1297A24
:102CC000002900D0CDE1E9780126002900D1AFE04C
:102CD0002B6B297D232252010292EE4A019200249D
:102CE00000942A464C32FEF7DBFF002800D016E1A4
:102CF000EC704848FEF772FE6E7084E030AA042043
:102D0000507024201070E96A481CE8627120022388
:102D100000F0D0FB3F48FEF761FE6C70A1E1002699
:102D20003546F02E0ED073ACA0590F9904F0E0F99F
:102D300002F03EF90146A051284602F0ADFB0546DF
:102D4000361DEEE700242846214602F05DFB0028F0
:102D500001DC7F20C5050E9EF02C08D073AE3059E3
:102D6000294602F0CDFF30510E9E241DF4E72D4878
:102D700000680F9072A8007810AD71AC2946224609
:102D8000FFF7AAFC2248C671248884832988054657
:102D90000991418330060D99089008180F9A9142C5
:102DA0000A9000D308460F99401A183030210B9131
:102DB00002F058FA0646A86264252046294602F029
:102DC00051FA840009982946114D02F04BFA201857
:102DD000E874C0B200F09CFB300E30ACE073300CF5
:102DE000A073300A607326730C9E0F9886424CD3F2
:102DF00030464CE00748FEF7F1FD0020E8826C7099
:102E0000A86B401CA863A848FDF7B0F929E1C046AB
:102E1000F8320020E60E0020189601002C960100E2
:102E20009F86010018E000E00000A041FF010000C3
:102E30000F962E469D4C256873A910AAFFF728FA15
:102E4000002800D184E00E9523683546B07802282A
:102E500000D093E06C6A287C012800D08BE0944875
:102E6000008809300A210D9302F0FCF90D9B696B73
:102E7000611A81427FD28F48FEF7B0FD6878002842
:102E800000D0EEE0FEF74CF8EBE0089830180F9910
:102E9000401A18300B9902F0E5F9010EE172010CAD
:102EA000A172010A617220720D98B0420E9E0A99B9
:102EB00000D301460C98081A18300B9902F0D2F989
:102EC000010EE171010CA171010A6171207166802E
:102ED0003C206070729820700020F0280CD030A93F
:102EE000091873AA12580A74130ECB74130C8B743E
:102EF000120A4A74001DF0E7EA6A501CE8622320B7
:102F000040010390634802903002019030A8009085
:102F1000242000210B46FEF73DFE002806D0014686
:102F20002E725C48644AFDF70DF99AE06148FEF79D
:102F300055FD6E7095E05F48FEF750FDF5827470A8
:102F4000B06B401CB0635848FDF710F9354688E077
:102F500030AA04205070212010703546F16A481CB8
:102F6000F0627120022300F0A5FA5248FEF736FD08
:102F70000F98707075E06C630F9828740F9AEA715F
:102F800010A80478EC74A008642148433230A88368
:102F9000032020404843323068830E99994201D281
:102FA00010060918C81A183030210E9102F05AF98B
:102FB0003546B062204600F0ABFA109C34753046BE
:102FC0004C3073A90E9A01F019FE30A800214180FF
:102FD0004470FF210170F16A481CF0620E91316368
:102FE000B078811E4A1E9141F1702F21C9430029FA
:102FF00012D030AA521873AB5B181B6B3425535593
:103000001D0E372415551C0C3625545535461B0A04
:1030100035241355091DEAE7022816D11D480290F0
:103020003420019030A800902320400103902120FB
:1030300000210E9A0B46FEF7ADFD00280CD001468C
:103040000F98287213481D4A6DE7212030AA3423B7
:103050000E9900F02FFA04E01648FEF7BFFC0F9817
:103060006870287A002800D0F3E1687A002800D13F
:10307000EFE1687AAC7A2A6AEB7A294600254D722C
:10308000401E082800D9BEE00E4604A1085C40009E
:103090008744C046962E0020A135000016662D48B4
:1030A0001E70895AA600C0463D28000018E000E0C6
:1030B0000E000020E60E002049350000813500009A
:1030C000002C00D1EBE001201146F74A1323BEE1AA
:1030D00014461D46FDF732FFE848FEF70BFB0123BF
:1030E00073700020F08230AA15707020AEE1B078C5
:1030F00000280CD1307B002809D1E0480F921D46F2
:10310000FEF760FC2B460F9A002800D1A5E1002CA9
:1031100000D11BE1114630AA0120507013707120BC
:10312000022394E114467078012808D1D3481D4643
:10313000FEF7E0FA00207070FDF7F2FE2B4630AA91
:1031400013707020012381E10E930F92F07B04280D
:1031500063D330AA022353700E981070712041E19E
:10316000002C00D19EE014467078002800D1B0E019
:1031700003203AE10D203546305600280F920E9379
:1031800000D596E06878012800D0AAE0687B71A994
:103190000091BA49BC4A10ABFEF798FE0D90B748B3
:1031A000FEF7A8FA9FE0B07B00280F9211D03146BD
:1031B000707801280DD110A80090B248AF49B24AEA
:1031C0001C4673ABFEF7A0FF0546AC48FEF792FA2B
:1031D00023461C46B078032835D1FFF729F934E09F
:1031E0001146308B01221202F43290420ED835740F
:1031F00030AA1370308BA24B18805070000A907068
:103200007020032323E1002C61D0114630AA184618
:10321000022353701070712019E1FDF78FFE97485B
:10322000FEF768FAB5717571F57035730124747025
:10323000F07BB070002800D1C4E0032800D0BFE0CC
:10324000FFF7F6F8BEE0FEF7EDFF002D20D030AC22
:10325000FE20207010986070FEF732FE302102F0E0
:1032600001F88A49884200D30846A070000AE0703D
:103270000020802864D030A9091873AA12580A7156
:10328000130ECB71130C8B71120A4A71001DF0E7FB
:1032900030AA1470B07B00285BD001205AE083482C
:1032A0000D215FE07548FEF78DFB002854D07D4866
:1032B0004DE07F20C0436C7B44406878012854D1A6
:1032C000E0B273A972AAFFF7E3F905464EE0784829
:1032D00047E06A48FEF776FB002800D184E0022030
:1032E00083E000200D90A878032802D1FFF7A0F812
:1032F00001E0FEF797FF0D9800280E9924D030AC1E
:1033000071986070707B2070FEF7DAFD302101F05B
:10331000A9FF5E49884200D30846A070000AE07009
:10332000002080280CD030A9091810AA12580A7160
:10333000130ECB71130C8B71120A4A71001DF0E74A
:10334000212030AA84234DE0002C2FD150480B219E
:1033500008E0032050702DE0307B012800D089E088
:103360004F480E2100F0C6F873E00025B07803281E
:1033700002D1FFF75DF801E0FEF754FF002D0E9932
:1033800014D030A90C7000204880729A4A70F0283E
:1033900012D030A9091873AA12580A71130ECB71F2
:1033A000130C8B71120A4A71001DF0E730AA03203A
:1033B00050701170712014E0262030AAF42311E01F
:1033C000FEF730FFB078002801D0610200E0E10292
:1033D0002A48FEF7B3F930AA0E981070B0785070F2
:1033E000702002230F9932E0307B30A908703079C9
:1033F0004870B178284A1368DB0603D502231843C6
:1034000030AB587013689B0603D50423184330ABC8
:1034100058701268520603D50822104330AA507023
:1034200030AA0023937091721381537102200029F6
:1034300001D0014600E00821D17019218902D18014
:10344000317B002900D1402313710B23214600F06A
:1034500031F8FE1F053EB546F0BD01203073002057
:103460007070FDF75DFD002C06D030AA157070203D
:103470000123B7E7094813E7064811E7E60E0020E5
:103480000E000020482D0020A2100000FFFF0000C9
:10349000ED950100F9950100A4000140DF950100C0
:1034A000D0950100C4950100A2950100B6950100D8
:1034B00007960100BFB506AF0C460B4923256D01E9
:1034C0000092019302910395002122460B46FEF7DC
:1034D00061FB002807D0014604480122027202481D
:1034E000034AFCF72FFEBFBD962E0020F8320020C5
:1034F000B535000080B500AF034A01231372034ABB
:10350000FCF720FE80BDC046F8320020B535000033
:10351000D0B502AF820010231A400A490C689C43C0
:10352000A2180A60020120231A400C689C43A218CA
:103530000A600A6840239A43C007400E10180860CA
:10354000D0BDC046A4000140D0B502AF094C002058
:10355000E07020720848FEF741FA01206070A07800
:10356000FD210140481E4142414161710348FCF781
:10357000FDFDD0BDF8320020E60E00203D28000001
:1035800080B500AF04480121817100210172034818
:10359000FCF7ECFD80BDC046F83200203D2800005D
:1035A000034800210172C18A491CC1827047C0468C
:1035B000F832002080B500AF0348002101720348B3
:1035C000FCF7D4FD80BDC046F83200203D28000045
:1035D000FEE7D4D480B500AF00F02EF811481249B0
:1035E00088420CD282680023002A06D030C8E458F2
:1035F000EC50521E1B1D0838F6E70C30F0E70B4864
:103600000B4988420BD242680023002A05D0046887
:103610000025E550521E1B1DF7E70830F1E701F0C9
:10362000D7FDC0466896011074960110749601107B
:1036300074960110FEE7D4D40120C003014908604C
:103640007047C04610000020F0B503AF81B02321C1
:103650004C0625680E4EFF2131600E49411820228C
:10366000204601F0CBFA00200090306020688021D5
:10367000014321602068402101432160022028404D
:103680002168014301200843206001B0F0BDC0461D
:103690005400004000000147D0B502AF82B0074C93
:1036A000FF232360064B0B400649591801F0A6FA88
:1036B00000200190206002B0D0BDC0465400004000
:1036C000FFFF0300000001470249088000204880F6
:1036D0007047C04614000020F0B503AFB1B0016AD6
:1036E00006914169059181680491C1881A91818888
:1036F0000E9146881BA91CC81CC13CC83CC13CC8D3
:103700003CC10E9C1A9B002E00D1A7E01BA8028D85
:103710001192C28C0A92828C0392828B1692428BF7
:103720000992028B0292028A1592C28908928089BC
:1037300001900320C003199000200546079604E07D
:10374000A8B2079EB04200D388E0294605468035DE
:10375000B54201D8802600E0761A1BA94E80002CC5
:10376000EED003994143069A89180D91029941437D
:10377000059A89180C9101994843049940180B90B7
:10378000002001460F95129605E0109988B20E9C14
:10379000A0420F9DD4D2024680321092A24201D89C
:1037A000802200E0621A1BA914928A80002BECD0C0
:1037B0000A9941430D9A51181A91099941430C9A5B
:1037C00051181891089948430B99081817901498A4
:1037D000400013900024204604E0ACB23346B442CB
:1037E0002846D2D2254680359D4201D8802100E06E
:1037F000191A1E461BA8C180002C1A9900D01999CD
:10380000239116996143189A511820911599614393
:10381000179A51181D9100F025F8002CDDD026A82C
:1038200002210185C184139A8284818341830283AA
:103830000182C18182810121C18014998180129904
:1038400041800749018019992B9111994C431A998C
:1038500061182E912891FFF73FFFBEE731B0F0BD10
:1038600001030000F0B503AF8EB001780902427881
:10387000120451184288120689180C910179C288E5
:103880001202511889B283681A0451180B91848965
:1038900052490C40032292039D0815402C19C589FA
:1038A0000D401B0913405B191B041B190A93038A63
:1038B0000B4044692504EB180993038B0B40A508C2
:1038C0001540EB18458B0D4024091440641924045D
:1038D000E3180893838B0B40046A2504EB180793C5
:1038E000A3081340858C0D405B1924091440C28C39
:1038F0000A40A2181204D2180692008D08400590C2
:10390000374908884988374BFF2201921A604901DC
:103910000818029082B234490C98505400925618FC
:10392000010EF170010CB170000A70700B983071CB
:103930000A9D3572099A3273089C3474079931755F
:10394000069B03933376059B04933377030EF37141
:10395000030CB371224B000A7071280EF072280C10
:10396000B072280A7072100EF073100CB073100A47
:103970007073200EF074200CB074200A194C70740F
:10398000080EF075080CB075080A70750399080EDA
:10399000F076080CB076080A70760499080EF07775
:1039A000080CB077080A707700200D9020605988C5
:1039B00000290ED0019921600C49009A5218491C27
:1039C0001140029A084D4A554919120A4A700D9041
:1039D00020605888401C58800EB0F0BDFF3F0000AA
:1039E000140000205400004000000147FEFF0300C7
:1039F000F0B503AF8BB00446684600250585022666
:103A0000C6840682C581BD68C580FE688680438005
:103A1000084B03807300838483836B008381089445
:103A200005920291012149040691FFF755FE0BB062
:103A3000F0BDC04603020000B0B502AF8CB0044632
:103A400001A800250585022585840582C380828022
:103A5000BA6842805200C28482838322920002802C
:103A600009940795069106490491F9683A69511835
:103A70000122120489180391FFF72EFE0CB0B0BD8D
:103A800002000200F0B503AF8BB004466846002583
:103A900005850226C684868345830682C380BD6869
:103AA000858042806A0082845A00028383229200C9
:103AB00002800894059106490391F9683A69511802
:103AC0000122120489180291FFF706FE0BB0F0BD27
:103AD00002000200F0B503AF8BB004466846022531
:103AE0000585C584858345830582C5810125C580FB
:103AF000FD688580BE6846800326467004706C00B1
:103B0000848404838481089105930292FFF7E4FD85
:103B10000BB0F0BDF0B503AF8DB001920A4601467F
:103B200002A802260685C684002585830682C681F2
:103B30000126C680FE688680BC68448003244470E9
:103B400001707100818481810A920895079301991F
:103B50000491FFF7C1FD0DB0F0BDC046F0B503AF55
:103B6000A5B003920C910FAA022111820A91D18172
:103B700001210991D1808021019151700B90107029
:103B8000002090831085BD68690091811590189080
:103B9000002B5ED089B2029103210891C9030791DD
:103BA00001460493069504E0059988B2049B984267
:103BB0004FD20A4601468031994205910E9201D8B2
:103BC000019900E0991A0FAA5180002DECD00299BA
:103BD0004843039940180D900020014620E0079DBE
:103BE00017950FA8FFF73EFE1AA80A99018584834E
:103BF000018209994180089941700B990170164A18
:103C000023920C99229120941F95069D1D921C9140
:103C100012491B91FFF760FDB0B2A8423146C3D2F2
:103C200006468036AE4201D8802200E06A1A0FAB09
:103C30009A800024149440000D9A101811900E9848
:103C400001430804CBD10C9817900FA8FFF70AFE88
:103C5000E2E725B0F0BDC04602000200010001000D
:103C600081B0002000900249086001B07047C04652
:103C7000540000400148FF2101607047540000409B
:103C8000D0B502AF82B0074CFF232360064B034040
:103C90000648181800F0B2FF00200190206002B022
:103CA000D0BDC04654000040FFFF030000000147A4
:103CB000B0B502AF82B0074DFF202860012042045A
:103CC00005480024214601F0EFF801942C6002B071
:103CD000B0BDC0465400004000000147232040060C
:103CE000016802220A4302607047232040060168EF
:103CF0000222914301607047232040060168402260
:103D00000A4302607047D4D4F0B503AF9DB011915F
:103D10000446122210466043DE4B1818099000F04A
:103D20006DFF03200F90C002A102081880B20E9010
:103D3000FFF7CAFC12A9002010900880D64EB01ED2
:103D400002252A46FFF79CFF7F20C00112A90880A8
:103D5000301F0D902A46FFF793FFD048B33012A9C9
:103D60000880B01F03902A46FFF78AFF12A9CB48AC
:103D70000880304608382A46FFF782FF12A9C84853
:103D8000088030460A382A46FFF77AFF12A9C5484C
:103D9000088030460C382A46FFF772FFBF20C0016A
:103DA00012A9088008946000301A1A3807902A4631
:103DB0000B95FFF765FF1198808812A90880B64C13
:103DC0000E3C20462A46FFF75BFF01250095019532
:103DD000072021462246109E3346FFF79BFE0095A2
:103DE000019509200C902146069422463346FFF7A0
:103DF00091FE119EB08912A90880A74810380B9C2B
:103E00002246FFF73DFFF08912A90880A248123828
:103E10002246FFF735FF308A12A908809E4E143ED5
:103E200030462246FFF72CFF009501959A49163936
:103E300020460D9A33462E46974DFFF76BFE11989C
:103E4000C08812A9088028462246FFF719FF00966D
:103E500001960C9829462A46109BFFF75BFE0096B8
:103E6000109601960F9829462A462B46FFF752FED8
:103E70000E980546FFF7E8FB8B48232149060968A1
:103E8000490603D4411E00280846F6D109988188C6
:103E90000F9144882846FFF717FC089D284600F03C
:103EA000CFFA0094019405200590410369430B204B
:103EB00000030B910918119103200C900A46764BD0
:103EC000FFF728FE0094109E0196BB204002E901F6
:103ED0000A180E92754811992346FFF789FD009440
:103EE0000194724D803D28460E99119A3346FFF792
:103EF0007FFD009601946E486C492A462346FFF7E1
:103F000077FD009401966A48861E304629460E9A2F
:103F1000109BFFF76DFD109800901098019010987D
:103F2000314632460D9BFFF7D5FD10980090109852
:103F3000019009200025314632462B46FFF7CAFD85
:103F4000009401940C985A490A463346109EFFF794
:103F5000E1FD0094019402200C9011990A46544B03
:103F6000FFF7B8FD00940196504811990E9A0D94F0
:103F70002346FFF73DFD0F990998001D04905D2031
:103F800080020E9000293BD00B98434A1018801CE9
:103F90000B9048000A902DE0A0B2019069001191A9
:103FA0000E980A18424841490D9E3346FFF720FDFE
:103FB00012A80C9A0285C2840A9B8384828342835E
:103FC000610001830282C2818381109AC280848051
:103FD0004680384901800B99119BC91816461A91E1
:103FE000334A17921491FFF777FB4035ADB20F9922
:103FF0008D4205D200964C1B402CCDDB4024CBE7F4
:104000000598C001089D68437103401880B2049967
:104010000C88FFF759FB284600F012FA0998407AFD
:1040200000281AD0009401960325284620490E9AAC
:104030001346FFF74FFD0096304623463446079E51
:1040400031461B4AFFF78AFD009401942846314609
:104050003246039BFFF75EFD11E0009401960420B9
:104060000023134D29460E9AFFF734FD0096304683
:1040700023463446079E31462A46FFF76FFD0094DB
:104080000194032031463246069BFFF743FD1DB0E5
:10409000F0BDC04618000020FE2F00004D3E00007D
:1040A000243C000080BF00001FA1070080770100B2
:1040B0000278010001030000F0B503AF87B00646A7
:1040C000252000020690FFF7FFFA12217143234AD0
:1040D000551868896B88515A0093019105214C034A
:1040E0007443324605961E4EA1190C3152000492BB
:1040F0008018401C82B20C2003903346FFF70AFD63
:1041000068896988009101910B2109036118049A5B
:104110001018801C82B203983346FFF7FBFC6888B6
:10412000012100900191BB2040020599C9010918A5
:10413000083603200A463346FFF7ECFC0698FFF7E3
:1041400083FA0848232149060968490603D4411E19
:1041500000280846F6D107B0F0BDC0461800002080
:10416000F42F00001FA10700B0B502AF15460446AA
:10417000002909D012206043144A105A4004020C4E
:1041800017200003FFF77CFD122060430F49002D2C
:1041900008D0081880884004020C0D482946FFF713
:1041A0006FFD0AE00D18FFF765FDA8884200094879
:1041B000094900F023FDFFF753FD0320C002A102CF
:1041C000081880B2FFF740FAB0BDC04618000020C2
:1041D000027801000278024700700247B0B502AFD2
:1041E00015460446002909D012206043154A105A8A
:1041F0004004020C17200003FFF742FD1220604329
:104200001049002D08D0081880884004020C0E4880
:104210002946FFF735FD0AE00D18FFF72BFDA888AA
:1042200042000A480A4900F0E9FCFFF719FD0520A1
:10423000C001604301214903401880B2FFF704FA2E
:10424000B0BDC04618000020027801000278024785
:10425000007002472320400600688109012088433E
:104260007047C04680B500AF0B4612214143054858
:10427000401880884004020CB92041021846FFF71C
:104280000BFA80BD18000020D0B502AF82B040000C
:104290000549091A01AC02222046FFF7FDF900206A
:1042A000205E02B0D0BDC046E42F000070477047CA
:1042B000D0B502AF0446052040034843101803213F
:1042C0000903401821461A46FFF7DAFCD0BDD0B5E5
:1042D00002AF044605204003484310180B21090390
:1042E000401821461A46FFF7CBFCD0BD80B500AF81
:1042F00017231B03C918FFF7CFF980BDD0B502AF54
:10430000052464034C4311190322120389181A4629
:10431000FFF7C2F9D0BDD0B502AF052464034C430A
:1043200011190B22120389181A46FFF7B5F9D0BDEF
:10433000F0B503AF87B01E4604910590D0017F21F0
:10434000C901081A06A908801B480222FFF798FC39
:1043500017200503700082B2284604990492FFF7E3
:104360008FFC252000020390FFF7AEF90124009690
:1043700001940720002329462A46FFF7ABFB00964D
:104380000194032029462A460B4BFFF7C3FB0398F1
:10439000FFF75AF90948232149060968490603D459
:1043A000411E00280846F6D105982946049AFFF7D1
:1043B00073F907B0F0BDC046E62F00001FA107004B
:1043C000F0B503AF85B002920D460390252004029C
:1043D0002046FFF779F97F20C00104A90880124820
:1043E0000222FFF74DFC01200095019017200603E3
:1043F0000C203146029A0C4BFFF78CFB2046FFF74E
:1044000023F90A48232149060968490603D4411EB5
:1044100000280846F6D16804020C03983146FFF7DD
:104420003BF905B0F0BDC046FA2F00001FA1070000
:10443000004870470070024700487047007202470A
:10444000F0B503AF8DB0BB214A02C1018C18122216
:10445000079042434E498B5A8D18A8880990688866
:104460000C90E8890126F20317210903002808941B
:104470005CD00C9800900B9606460B98019045482E
:104480000593831F03200A90049143490692224614
:10449000FFF740FB6889401D80B2009601900698A6
:1044A00002903E4821460B9A3346FFF7EBFA0096FE
:1044B0000B9801903748831E0A9838490A46FFF73F
:1044C00029FB688935460B9E00950190069802905D
:1044D000204604993246059BFFF7D4FA00950196D1
:1044E0000A98214622462B4BFFF714FB00950196B4
:1044F000304621462246294BFFF7ECFA079D284615
:1045000000F050F80C98009001962248031F0A987A
:1045100021462246FFF7FEFA0C980090019630469D
:10452000214622461C4BFFF7D5FA14E068890C9D02
:1045300000950190029220463246FFF7A3FA0095BB
:104540000196032021462246124BFFF7E3FA079D0E
:10455000284600F027F80C980090099C019405204B
:10456000400368430B490A181232B9204502284615
:1045700008993346FFF73CFA009401965D208102CA
:104580000220074A2B46FFF7A5FA0DB0F0BDC04642
:1045900018000020EE2F0000027A0100027C0100CA
:1045A00002780100F0B503AF83B0122141432C4AD9
:1045B0005218117A5688032936D0022928D00129A9
:1045C0004BD1012400960194BB214902C00145183A
:1045D0002448031F032029462A46FFF79BFA00962A
:1045E00001942048831E204629462A46FFF792FA66
:1045F000009601941B48831C062029462A46FFF793
:1046000089FA00960194052029462A46154B22E096
:10461000012100960191BB214902C00141181148B6
:10462000831C06200A4616E00121029100960191A2
:10463000BB214902C001441805200A4D21462246EB
:104640002B46FFF767FA009602980190083D062076
:10465000214622462B46FFF75DFA03B0F0BDC04667
:1046600018000020FA2F0000014908607047C0467A
:10467000B400002080B500AF00F05CFA02480021D1
:104680004160816080BDC046B4000020BCB504AF6D
:10469000234DE8680A281FD80124810001A251583F
:1046A0008F46C0461F470000D9460000F94600006B
:1046B000D1460000EB460000EF460000D546000062
:1046C000E3460000E7460000F7460000F34600001E
:1046D000022411E005240FE0401E09281DD8002403
:1046E0000AE0062408E0072406E0032404E004248A
:1046F00002E0092400E008242B68002B0DD001A95A
:104700006A4620469847401C07D00098C10F4018C1
:104710004110A21C019800F005F80020E860BCBD23
:10472000B4000020F8B504AF16460D460446104606
:1047300000F0CEF8002800D0F8BDF100024A891838
:1047400008398D800C60F8BD3C00002080B500AFBA
:1047500000F0D0F805480021782200F0A5FB0120E8
:10476000C003034900F00EFA80BDC0463C000020A3
:1047700075470000BCB504AF441E0F2C17D2394852
:1047800000F028FA38484168002901D000228A80C8
:104790000122E100354B591841608260C268002A4D
:1047A00000D0BCBD89880029FBD1C460BCBD0028F5
:1047B00008D02B49884211D12A4800F00BFA00F0AA
:1047C000DDF8BCBD274800F005FA274841680029FC
:1047D000E7D0002282608A804260BCBD224DA8687A
:1047E00002280AD0012823D168688488204600F076
:1047F000F1F9002C26D0022026E068680068002429
:10480000005F1B49884200DB08461A49884200DCE9
:10481000084680B200F0DEF968680168891C016012
:104820008188491E81800804BBD16C60AC60BCBD2E
:1048300001A800F089F8012808D002280BD1094806
:10484000401C05E000206860A860BCBD0548801CD5
:1048500001A9088001E001A8008800F0BBF9BCBDF7
:1048600001800000FF7F0000B40000203C00002019
:10487000FE7F00000280FFFFD0B502AF0C4940244C
:104880000C6000B20B49884200DB08460A498842A6
:1048900000DC084680B2BFF34F8FBFF36F8F00F08C
:1048A00039F806490C60411E48424841D0BDC04617
:1048B00080E100E0FE7F00000280FFFF00E100E0F9
:1048C00080B500AF00F066F8411E4842484180BD07
:1048D00001460220012909DB0F2907D8481EC00024
:1048E000034908188088002800D003207047C0467C
:1048F0003C00002005480649002202700122920275
:104900008A1841608160C2607047C046C4040020BC
:10491000C40000200A490A78002A01D0012070470B
:104920004A681080CB68901C984200D105484860C6
:104930008A68904201D000207047012008707047BB
:10494000C4040020C40000200A490A78002A01D0CB
:10495000012070474B688A68934209D0138803800E
:10496000CB68901C984200D10348886000207047B3
:1049700002207047C4040020C400002003480449FA
:1049800041608160002101707047C046C40400206E
:10499000C4000020014800787047C046C4040020CD
:1049A000FEB506AF534D544EAE606E6000242C70C1
:1049B00001A80480012189027118E9600294FFF7BF
:1049C000C3FF0290022800D092E04C48FFF7A2FFFC
:1049D0000290002800D08BE001A8FFF7B5FF0290FD
:1049E000002800D084E001A8FFF7AEFF0290022863
:1049F0007ED1A0B2FE2806D8FFF78CFF0290641C7F
:104A00000028F6D074E028780290002870D13B4846
:104A1000FFF780FF029000286AD0287802900128D2
:104A200066D13648FFF776FF0290002860D001A8D3
:104A3000FFF78AFF029001285AD101A8FFF784FFEF
:104A40000290012854D16E60AE6000242C70029454
:104A500001A8FFF779FF0290022849D12748FFF704
:104A600059FF0290002843D101A8FFF76DFF029083
:104A700000283DD101A8FFF767FF0290022837D137
:104A8000A0B2FF2806D2FFF745FF0290641C002861
:104A9000F6D02DE00025FF2D0CD201AC2046FFF70B
:104AA00053FF0290002823D1681C2188A9420546A3
:104AB000F1D01DE00024A0B2FF2809D22046FF302B
:104AC00080B2FFF727FF0290641C0028F3D00FE0AC
:104AD000002401A8FFF738FF0290FE2C08D8002818
:104AE00006D1601CFF3401A90988A1420446F0D018
:104AF000FEBDC046C4040020C40000200110000018
:104B000080B500AF094801688AB24260084A12685D
:104B10000369002A05D02320C000014098B29047C5
:104B200080BD0121C903C16080BDC046100900419C
:104B3000D404002080B500AF01204004FCF76EFDD6
:104B40000A4940200860BFF34F8FBFF36F8F0849B9
:104B5000084A0A60FF210904074A13688B4313605F
:104B6000064908600649086080BDC04680E100E053
:104B7000C80001401112111104E400E080E200E0DD
:104B800000E100E0F0B503AF0F4A15681468012397
:104B90009C4314601C021668264316601668A643E0
:104BA0001660ED0702D015681D431560074D1560AE
:104BB0005460D06150681F2404435460044801606D
:104BC000106818431060F0BD000900411406000091
:104BD000D4040020014908607047C0461C09004108
:104BE00030B500240139A24201D1002005E0035D67
:104BF00001340D5DAB42F6D0581B30BDF0B5DE463A
:104C000057464E464546E0B583B00F2A00D87FE0B0
:104C100003252B0007240340E41A052C04D90600C1
:104C20000E43354200D1DAE04D1C0E782D78441C3D
:104C3000067025708C788470CC78C4700C790471FF
:104C4000032B09D04C794471022B05D08C798471E7
:104C5000012B01D0CC79C4710824A446DC1FA41810
:104C600062460325D31ACE18290031408A46C3185C
:104C7000621E2E4200D0B9E00F2A00D80CE1113C90
:104C8000210988460F2C04D919003143490700D166
:104C9000D6E010274546BC46190034002D019C443F
:104CA000AC4465684D60A5688D60E568CD60256899
:104CB00010340D6010316145F3D1474601373C0196
:104CC00031190F271B190C241740144200D1E1E0C1
:104CD0000A683C1F1A60032C09D90D1D1A1D2D6886
:104CE00015603A00083A032A01D98A689A600322BB
:104CF000A4080134A4003A4009191B19551E002AC2
:104D00000AD103B0F0BCBB46B246A946A046F0BDEE
:104D10000300551E002AF4D0052D00D887E00C00B2
:104D20001C43A4073BD00C784E1C1C705D1C941EC9
:104D300036782E70002CE4D08C789C70032AE0D05A
:104D4000CC78DC70042ADCD00C791C71052AD8D010
:104D50004C795C71062AD4D08C799C71072AD0D00A
:104D6000CC79DC71082ACCD00C7A1C72092AC8D004
:104D70004C7A5C720A2AC4D08C7A9C720B2AC0D0FE
:104D8000CC7ADC720C2ABCD00C7B1C730D2AB8D0F8
:104D90004C7B5C730E2AB4D08A7B9A73B1E70C68A3
:104DA0001C609408012C6AD04E685E60032C01D10F
:104DB0008C689C6003241442A3D0A2438C189E18D4
:104DC0002378AA1A3370611C731C551E002A98D0D0
:104DD0000A781A70002D94D0A378B37091E70D680B
:104DE0000560062C44D04C68446035E75446751A7B
:104DF0006146091B8C460421091BC9008846E10055
:104E0000894640CD34004946CC40019540CD0094C0
:104E100031004446A1401F00009C04330C433C6019
:104E20001400043A6245EDD20199651F51440C7893
:104E30001C70002D00D164E74E1C5D1C941E77E7AA
:104E400001244444B44619000027A1466446E5689D
:104E5000A4688C60CD606446656824680C604D6011
:104E60001024A2460137D4441031B945EED824E7C6
:104E70000C7904714C7944718C798471ECE61E1DB7
:104E80000C1D042A00D13CE7951F0A7905311A71DF
:104E900005339DE73A003CE7350017001A00310062
:104EA00040CD053C40C21AE7F0B5CE464746050066
:104EB00080B5830700D16EE0531E002A56D004004F
:104EC0000326CAB202E00135013B4FD301342A70F8
:104ED0003442F8D1032B37D9FF250D402A0252194D
:104EE000150452190F2B59D91F00103F1F2F01D93C
:104EF00066073FD03F093E01B0461026B4464646FD
:104F00002500A44466442A606A60AA60EA601035FD
:104F1000AE42F8D101373D0164190F250C261D4022
:104F20001E402B00002E0FD02B1F2260032B05D913
:104F30002E00083E6260032E00D9A2609B08013358
:104F40009B00E41803232B405A1E002B0ED0C9B23D
:104F50002170002A0AD0023B5D426B4161705B42C6
:104F6000012A03D0A170002B00D0E170C0BCB9466B
:104F7000B046F0BD00263F09B0467E1C2500B44671
:104F80000126B146C8442A606A60AA60EA6010350A
:104F9000E045F5D3BEE7040013009BE71D00C3E71F
:104FA0000023C25C0133002AFBD1581E7047D4D4C1
:104FB000F7B5FF214300041C5B08C9058B4204D9E7
:104FC000011C201C00F068FA0DE0C60F8B4204D1D2
:104FD000002E00D0BAE0201CFEBD5D49884204DDF1
:104FE000002000F0E7F8041CF5E7002806DA594A2B
:104FF000934203D9002000F0CBF8F4E7564A9342DD
:105000006ED9564AB50093424ED8554B201C59597B
:1050100002F06EF8534B071C5B5901257540009355
:10502000AD1B0099381C02F063F8041C211C201CE5
:1050300001F03CFE4C49061C01F038FE4B4902F0E1
:1050400057F8311C01F032FE494900F025FA311CB5
:1050500001F02CFE474902F04BF8311C01F026FE0E
:10506000454900F019FA311C01F020FE011C201CFA
:1050700002F03EF8011C061C201C01F017FE0190F6
:10508000002D40D18021301CC90502F031F8011CEF
:10509000019800F035FE211C02F02AF8011CFE20C8
:1050A000800502F025F89EE73449201C01F0FEFD42
:1050B000334B595900F0F0F901F0B0F8050001F058
:1050C00019F93049061C01F0F1FD011C201C02F009
:1050D0000FF82D49071C301C01F0E8FD0090A0E7F7
:1050E000D022920593420CD22849201C00F0D4F91A
:1050F000FE21890502F004F9051E97D0FE218905DD
:105100005FE7002592E78020311CC00501F0F0FF29
:10511000011C019800F0F4FD011C009801F0E8FF6B
:10512000391C01F0E5FF011CFE20800501F0E0FFC5
:105130002B007D3302DBEC0524184CE7D8216435C5
:10514000ED052818090501F0B1FD4CE7002442E700
:105150001772B142B5F1CF421872B13E9115853F39
:1051600048960100409601004CBB31330EEADD3514
:1051700055B38A38610B363BABAA2A3E3BAAB83FEF
:10518000509601008071313FD1F71737CAF249714B
:1051900010B5002805D080200006222100F004F878
:1051A00010BD0020F9E7D4D4014B19607047C04608
:1051B0007433002010B5002804D004482221FFF7E2
:1051C000F3FF10BDFF20C005F8E7C046000080FFD8
:1051D00010B5084A08490948FFF710FD0021084AA0
:1051E0000848FFF761FE00F00FF800210800FBF708
:1051F00019FAFEE714000000749601100000002068
:10520000643300001400002070B50F4C002C02D055
:105210000E4D002D11D10E4C0E4B9C4210D10E4B59
:10522000002B01D000F000F80C4C0D4B9C4206D036
:1052300008CC9847F9E708CC9847A542FBD170BD48
:1052400008CC9847E8E7C0460000000000000000D6
:1052500014000020140000200000000014000020B2
:1052600014000020012925D300D17047884201D2C3
:1052700000207047024684465FA00130130C8B4229
:1052800001D31A00A038130A8B4201D31A005038F8
:1052900013098B4201D31A00283893088B4201D39B
:1052A0001A00143853088B4200D30A3802006046B3
:1052B00000231047002080B501F0EEFF80BDC046FE
:1052C00000BFCA07904200D3801A5B418A07904210
:1052D00000D3801A5B414A07904200D3801A5B4199
:1052E0000A07904200D3801A5B41CA06904200D35D
:1052F000801A5B418A06904200D3801A5B414A06BD
:10530000904200D3801A5B410A06904200D3801A73
:105310005B41CA05904200D3801A5B418A059042E6
:1053200000D3801A5B414A05904200D3801A5B414A
:105330000A05904200D3801A5B41CA04904200D310
:10534000801A5B418A04904200D3801A5B414A0470
:10535000904200D3801A5B410A04904200D3801A25
:105360005B41CA03904200D3801A5B418A0390429A
:1053700000D3801A5B414A03904200D3801A5B41FC
:105380000A03904200D3801A5B41CA02904200D3C4
:10539000801A5B418A02904200D3801A5B414A0224
:1053A000904200D3801A5B410A02904200D3801AD7
:1053B0005B41CA01904200D3801A5B418A0190424E
:1053C00000D3801A5B414A01904200D3801A5B41AE
:1053D0000A01904200D3801A5B41CA00904200D378
:1053E000801A5B418A00904200D3801A5B414A00D8
:1053F000904200D3801A5B410A00904200D3801A89
:105400005B4118467047D4D440B542004B005E085B
:10541000164301D006004E4000D4D01A04D2012019
:10542000C90F06D1404204E003D90120C90F00D0C2
:105430004042FF263606B24200D8B34200D90120CE
:1054400040BDC04640B542004B005E08164301D047
:1054500006004E4000D4D01A04D20120C90F06D154
:10546000404204E003D90120C90F00D04042FF268A
:105470003606B24200D8B34201D90120404240BDB5
:1054800042004B000020FF2109068A4200D88B42CF
:1054900000D901207047D4D4F0B542004B00520827
:1054A0006FD05B086ED0D60DDF0DFF2E6AD0FF2FB8
:1054B00068D09A4205D20400150008001A002100A5
:1054C0002B004402A4094D02AD090126B606D20DF7
:1054D00000D03443DB0D00D03543D61A0CD0002B5E
:1054E00000D1761E20239B1B2F009F4000D0012758
:1054F000F5403D4300D1012507004F40FF0F21D16A
:1055000064190126F6062700374007D02700012638
:10551000374064083C430132FF2A53D0C00FC00714
:10552000D20510432100A401640A20430722114040
:10553000042906DB01D00130F0BD0100490800D389
:10554000401CF0BD641B1AD02600002AE6D0B60E1F
:10555000E4D10FB4200000F07FFB05000FBC6D1FED
:10556000AC40521BDADC0126B61A002220239B1B1A
:1055700027009F4000D00127F4403C43CEE70020A5
:10558000F0BD5B08FF24E405A24217D8A34214D85B
:10559000A24205D141400126F607B1420ED0F0BD2E
:1055A000A34201D10800F0BDD41802D0002A02D0D5
:1055B000F0BD0840F0BD0800F0BD080001218905DC
:1055C0000843F0BDFF24E4052043C00DC005F0BD35
:1055D00010B584B00391029001930092019B009A50
:1055E0000399029800F002F804B010BD10B5ACB0F9
:1055F00029912890279326922999289800F066FAF5
:10560000259124902799269800F060FA2391229002
:1056100024992598FB4A10402091219022992398A3
:1056200010401E911F902199209A0020521E814106
:105630000120C043801AF44888410AD3FFE71F982D
:105640001E990022491E9041491CEF49884100D211
:105650008FE021982099491EEC4988410CD3FFE73F
:105660002999289800F032FA0122D204114300F05F
:1056700038FA2B912A901CE21F981E99491EE34983
:1056800088410CD3FFE72799269800F01FFA0122E2
:10569000D204114300F025FA2B912A9009E22098B8
:1056A0002199DA4A51400843002823D1FFE729997C
:1056B000289800F00BFA089009912799269800F095
:1056C00005FA034608980A460999584051400122B4
:1056D000D20751400843002807D1FFE70020FA49CC
:1056E00000F0FFF92B912A90E3E1289829992B915A
:1056F0002A90DEE11E981F99F04A51400843002885
:1057000005D1FFE7269827992B912A90D1E121997D
:1057100020980843002820D1FFE71F991E980843CE
:10572000002815D1FFE72999289800F0CFF90690B5
:1057300007912799269800F0C9F9034606980A466A
:1057400007991840114000F0CCF92B912A90B0E154
:10575000269827992B912A90ABE11F991E98084310
:10576000002805D1FFE7289829992B912A90A0E1DC
:10577000FFE71F991E9B2198209AD21A88410DD2CB
:10578000FFE7249825991D911C9022982399259133
:1057900024901C981D9923912290FFE725984000A2
:1057A000400D1B9023984000400D1A902499259895
:1057B000C34A1040189119902299239810401691CD
:1057C00017901B98002805D1FFE718A800F094F95E
:1057D0001B90FFE71A98002805D1FFE716A800F0F4
:1057E0008BF91A90FFE725980122D1070840002184
:1057F00014911590259823994840C00F13A908705B
:10580000199818994B0FC000C018C900D205104351
:1058100018911990179816994B0FC000C018C9001D
:105820001043169117901B981A99401A12901298CB
:10583000002824D0FFE712983F281AD8FFE71698CF
:105840001799129B4022D21A00F0CEF90843411E4C
:10585000884111A90591087016981799129A00F0BD
:105860004DFE059A127801231A40104317911690A5
:1058700004E00020179001201690FFE7FFE713A82F
:105880000078C007002835D0FFE7179A169B1998B3
:105890001899C91A904118911990199918980843A4
:1058A000002807D1FFE70021084600F01AF92B91E4
:1058B0002A90FEE01998C00D00281AD1FFE7199927
:1058C000189800F03FF904900120C105002000F075
:1058D00039F901460498401A1090109A18981999AD
:1058E00000F082F91991189010991B98401A1B909A
:1058F000FFE723E0179A169B19981899C918504189
:105900001891199018A8C079C007002815D0FFE792
:1059100018A80078012318400FAA10701898199938
:10592000CC0740080019490812781A401043199111
:1059300018901B98401C1B90FFE7FFE71B986149DC
:10594000884209DBFFE7149815995C4A114300F07F
:10595000C8F82B912A90ACE01B98002821DCFFE7C7
:105960001B9901200390401A0E90189819990E9BCC
:105970004022D21A00F038F90843411E88410DA98F
:1059800002910870189819990E9A00F0B7FD029AC2
:10599000039B12781A4010431991189000201B9015
:1059A000FFE71898072108400C90189819994A07A2
:1059B000C00880184902090B0B910A901B98020538
:1059C0000A990B9810430A910B90159A149B0B9906
:1059D0000A98184311430B910A9000F08BFD014681
:1059E0000191032857D80198810002A0415840181E
:1059F0008746C0461C000000540000007A000000EA
:105A0000A0000000FFFFFF7FFFFFEF7F0000F07F9F
:105A10000C98052808DBFFE70B980A990022491C1F
:105A200050410A910B90FFE70C9804280BD1FFE737
:105A30000B980A9901220B4613400022C9185041C5
:105A40000A910B90FFE726E0159914980843002867
:105A50000CD0FFE70C98002808D0FFE70B980A99B4
:105A60000022491C50410A910B90FFE713E0159961
:105A70001498084300280CD1FFE70C98002808D0A0
:105A8000FFE70B980A990022491C50410A910B909C
:105A9000FFE700E0FFE70C98002803D0FFE700F0E5
:105AA0002BFDFFE70B990A9800F01BF82B912A9029
:105AB000FFE72A982B992CB010BDC0460000F07F5C
:105AC000FFFF0F00FF0700000000F87F84B0039184
:105AD000029002980399019100900098019904B0F6
