:020000041000EA
:1000000000400020F5140000150B000055150000FD
:1000100000000000000000000000000000000000E0
:10002000000000000000000000000000F1140000CB
:100030000000000000000000DD020000F1140000DC
:10004000450600008D02000075040000F114000058
:10005000F1140000F1140000212A0000F114000046
:1000600085010000F1140000F1140000F1140000FB
:10007000F1140000F1140000E5050000310A000051
:10008000F1140000F1140000F1140000F11400005C
:10009000F1140000F114000011050000F11400003B
:1000A000F1140000F1140000F1140000AD02000092
:1000B000F1140000F1140000F1140000350C0000F0
:1000C000D0B502AF72B60120040215490C60BFF32F
:1000D0004F8FBFF36F8FC00400F078FD11480168A7
:1000E000114A0A43026011480168FF2291430160EE
:1000F0000F48C16880221143C16019210160C368A3
:100100009343C36041610B49C160002141600169B3
:100110008068094804600948046062B6D0BDC046E2
:1001200080E100E0E80001402122000008E400E056
:10013000201800410310000080E200E000E100E030
:10014000074BDA6059600178064A11600121996015
:10015000401C186050680221014351607047C0463E
:10016000CC04002020180041044908610448C168FB
:10017000016805220A4302607047C046CC04002093
:1001800024180041F8B504AF274A50680E230340F5
:10019000022B0ED00A2B0CD0042B27D1101F006885
:1001A00022490B69D168002B21D0C0B289B298478F
:1001B000F8BD06201840022819D11C4D6968A868AE
:1001C000814215D9131F2C6826781E60401CA86038
:1001D000631C2B6081420AD110680223984310608F
:1001E000EA68002A03D0002408460FE0D068F8BD72
:1001F0001168022B0ED1022399431160116840232C
:100200000B431360EA68002AF1D00024214690478E
:10021000EC60F8BD422399431160EA68002AE6D0F9
:1002200000219047F8BDC04624180041CC040020AE
:10023000D0B502AF72B6032000F0C8FC0E4802240D
:100240000460BFF34F8FBFF36F8F0C480021016034
:10025000A320400000F0C4FCFF20000208490A6807
:100260008243012080031018086006480460064895
:10027000046062B6D0BDC04680E100E008100040D6
:1002800000E400E080E200E000E100E080B500AFC3
:1002900002480068002800D0804780BDE0040020AC
:1002A000014908607047C046E00400200148012170
:1002B00001707047E404002080B500AF00F02CFC12
:1002C00080BDD4D4FF20000403490A688243032080
:1002D000800510180860704720ED00E080B500AF81
:1002E0000348006880470120C0060249086080BDBD
:1002F000F804002004ED00E001480021017070477F
:10030000FC04002005490A78024200D0704701220F
:100310004A700A7802430A707047C046FC04002005
:1003200080B500AF00F0B0F900F0E0FB00F0C4F9D8
:1003300080BDD4D480B500AF72B6032000F046FC77
:10034000094904200860BFF34F8FBFF36F8FFF216F
:100350000904064A13688B43136005490860054980
:10036000086062B680BDC04680E100E000E400E0C5
:1003700080E200E000E100E0F8B504AF411E89B280
:10038000CD087C2D1FD801210902124A116003F00B
:10039000B1FC114A114B03F051FD0024104B2246D1
:1003A00002F088FF03F01EFB00F022FC0D4E3470BB
:1003B0000D48016802220A4302603078002802D109
:1003C00000F02CFCF9E77D2D01D30020F8BD0120C1
:1003D000F8BDC04618100040FCA9F1D24D62404063
:1003E0000000F0BFFE040020F0100040B0B502AFE6
:1003F000411E89B2CD087C2D19D8012109020F4A6E
:10040000116003F077FC0E4A0E4B03F017FD002439
:100410000D4B224602F04EFF03F0E4FA00F0E8FB39
:100420000A4804700A48016802220A4302607D2DCE
:1004300001D30020B0BD0120B0BDC046181000405F
:10044000FCA9F1D24D6240400000F0BFFE04002044
:10045000F0100040014800787047C046FE040020BC
:1004600080B500AF00F0CCFB01480121017080BDD8
:10047000FE0400200148012101707047FE040020A5
:1004800080B500AF72B61F480221016000F0C6FBC4
:1004900000F04AFB00242046214600F06DFB62B6C6
:1004A000FFF73EFFFFF70EFFFFF744FFFFF7C0FE29
:1004B00015480168012529430160FFF701FEFFF798
:1004C0001BFF00F003F900F01DF900F029F900F01E
:1004D00073F928462146224600F048FA00F034FA23
:1004E0000A49284600F0B8F9044600F057FA2046B9
:1004F00000F08AFE00F0D4FE00F090FBFFF7DCFE77
:10050000F8E7C04604300040F01000403C4B0000CB
:10051000BCB504AF01A80025058069460D801C4AC2
:1005200012680F239A4302801A48019A42400A80B7
:10053000194C2078002803D06846008802F02CF976
:100540002169E08842008918009A0A81A188491E21
:10055000814202DD401CE080BCBDE580607801285E
:1005600002D10120FFF7CEFEA078A168E268002842
:10057000134600D10B466361002800D1114621616A
:1005800001214840A070A0690028E5D08047BCBD8B
:1005900038100042FF7F0000000500200748C168B6
:1005A000074A13680B800B460833C3601068488005
:1005B000106888801068C8807047C0461C050020FD
:1005C000200800410548C168054A13680B808B1D4F
:1005D000C360106848801068888070471C05002040
:1005E00020080041B0B502AF1448016889B24160EB
:1005F000134D6C68611E032919D8C04679440979E6
:1006000049008F44010D070AE96800690880881CC9
:10061000E8600CE0FFF7D6FF09E0FFF7BFFF06E058
:10062000E96802690A800A1DEA6000694880AA68D0
:10063000002A02D0002120469047B0BD100800419A
:100640001C05002080B500AF04480068002800D0D9
:10065000804703480121016080BDC0461C05002081
:1006600004010040002804D002680A43026002200E
:10067000704700207047002804D002688A43026057
:10068000012070470020704780B500AF0120400274
:1006900003490A6802430A6000F004F880BDC046BE
:1006A0008C00014080B500AF02482021FFF7E3FF36
:1006B00080BDC0468400014080B500AF02482021C3
:1006C000FFF7D0FF80BDC0468400014080B500AF79
:1006D0000120400403490A6802430A6000F004F85C
:1006E00080BDC0468C00014080B500AF034840216A
:1006F000FFF7C1FF0249087080BDC0468400014079
:100700000000002080B500AF03484021FFF7AAFF9A
:100710000249087080BDC0468400014000000020EE
:10072000B0B502AF72B60124E50316480560BFF309
:100730004F8FBFF36F8F600500F048FA1248416891
:10074000124A0A4342608168114A0A438260016882
:1007500004220A43026000F025F80F21204600F031
:1007600027F90C48002101704170FF2000060A495A
:100770000A6882430A60094805600948056062B654
:10078000B0BDC04680E100E0E40001400000022B63
:100790002B020000300500200CE400E080E200E0C5
:1007A00000E100E080B500AF02482021FFF763FFC1
:1007B00080BDC046E4000140F0B503AF85B0684697
:1007C0001049142202F09CF9FFF7B4FD6420FFF7F2
:1007D000D3FD00260C4C142E12D2684681197C20C1
:1007E0000222234600F004F90A2E01D0012500E080
:1007F000C82500F015F82846FFF7BEFDB61CEAE74D
:1008000005B0F0BD4C4B00000D080000481E4142F1
:1008100041410248417001210170704730050020BC
:10082000D0B502AF0B4C002020700A20FFF7DEFD90
:100830002078002806D1FFF70DFE002802D100F035
:10084000EDF9F5E7FFF706FE002801D1FFF708FEF6
:10085000D0BDC04630050020D0B502AF0C4600F038
:100860000FF801460020002903D0044949780029E7
:1008700000D0D0BD204600F023F8D0BD30050020C8
:10088000BCB504AF01A900240C80451E1F2D0FD854
:10089000102800D93030401E8022024301A94A703E
:1008A0007C200222054B00F0A3F8072000F024F87A
:1008B000202D00D201242046BCBDC0460D080000FA
:1008C000D0B502AF86B005AA00211170694600F0CC
:1008D00021F80446002809D005A802787C20694642
:1008E000044B00F085F8092000F006F8204606B019
:1008F000D0BDC0460D080000D0B502AF0446FFF7DA
:100900008FFF60000249085AFFF736FDD0BDC04690
:10091000604B0000F8B504AF16460D46044602F0E1
:10092000C1FA01463070C2B20020002A0BD0102A52
:1009300009D8481C3070402028703278681C214645
:1009400002F0DEF80120F8BDDCB504AF01200002A2
:1009500001A908807C200224034B224600F048F8BD
:100960002046FFF7C9FFDCBD0D080000DCB504AF71
:100970000B4601A900240C705B0080001843104353
:10098000082202434A707C200222034B00F030F818
:100990000520FFF7B1FFDCBD0D08000080B500AFFA
:1009A00002482021FFF75EFE80BDC046E400014002
:1009B00080220243832313400C4802681A430260DA
:1009C00001614169012291434161110303688B4335
:1009D0000360D10203688B430360510202680A433B
:1009E0000260016840229143016070470428004181
:1009F000B0B502AF0C4C002525706160A260E560C7
:100A000023616570A5700121A17008494A689206AA
:100A1000FCD40A68102313430B6088600868202206
:100A200002430A600020B0BD3405002004280041C4
:100A300080B500AF1F498A781F48032A0ED0012ACB
:100A40002DD1426882239A4342604268D2071ED168
:100A50000A78002A23D103228A700EE0426882239A
:100A60009A4342604268D20711D18A68CB689A42A1
:100A70001DD9026808239A4302604A68127882608E
:100A80004868401C4860C868401CC86080BD00229F
:100A90008A7001224A70026820239A430260086922
:100AA000002803D00A69C8684978904780BD0022B1
:100AB0008A70F0E73405002004280041D0B502AF69
:100AC00002280AD806224243074B00249C549A1855
:100AD00054709170D17011715171032801D30020AD
:100AE000D0BD0120D0BDC04648050020D0B502AF22
:100AF0000648016809220A430260012000242146B9
:100B0000FFF7DCFF02480470D0BDC0468C000140F6
:100B10005A0500207047D4D402480121016030BF3B
:100B20007047C04644000040D0B502AF012001022A
:100B30000F4C22688A432260616803220A40012A1E
:100B400012D00021616121680A4A0A4063322260A2
:100B5000010322680A432260410322688A4322601B
:100B6000606001E000F05AF8A0684007FAD4D0BDF8
:100B7000000300400030FFFFB0B502AF114C226807
:100B8000114B13406033236001252A0323689343EC
:100B9000C007C00C18182060680322688243C80789
:100BA000800C10182060A802216801432160606A4F
:100BB000400402D400F032F8F9E72802216801432A
:100BC0002160B0BD000300400030FFFF03490A6808
:100BD00002430A604A6882434A6070474C00004002
:100BE000024900224A6008607047C0460010004079
:100BF000024900224A6008607047C0461010004059
:100C00000448016802229143016003480021016009
:100C10007047C046F41000401410004004485A21A8
:100C200001600168C907FAD0A52101607047C0467C
:100C3000003000400120C007014908607047C046ED
:100C400080E200E080B500AF3321CA00002102F04D
:100C5000ADF880BDF0B503AF87B019231C01035B6D
:100C60000519002908D0FF2262322F32934236D272
:100C70005A1C2A80C1543EE0002B3CD001920395BF
:100C80000490401C0690FF220292763200242646F1
:100C90009C4234D20498005D0590002825D0059828
:100CA0002118491ECDB2E1B28D420BD0611C994290
:100CB0001BD2964219D80698045D35488455761C97
:100CC0000C46F0E7641C0598FF28E1D09C42DFD277
:100CD00096420AD800212E4DA955761CD8E700244B
:100CE0002C806868401C686006E00020039908803A
:100CF0004868401C48600024204607B0F0BD00242E
:100D000003990C80152EF3D9214802784178090205
:100D10008B1881780904C27812065118CA181D4927
:100D20008A4230D1017901292DD1027C417C09020E
:100D30008D18029962318D4225D2294616318E4294
:100D400021D1361F314600F027F80690104880194F
:100D500000F03CF80E49069A824214D148792E469A
:100D6000019D28700846083000F030F82E81686038
:100D70000124002EC0D00A350549123128463246DA
:100D800001F0BEFEB8E703994868401C4860B3E72D
:100D90005B0500204150414EF0B503AF0023DA431C
:100DA000094C8B420ED0C55C6A400025072D07D840
:100DB0000126164076422640520872406D1CF5E727
:100DC0005B1CEEE7D043F0BD2083B8ED017842789C
:100DD00012025118827812048918C0780006081887
:100DE0007047D4D4F0B503AF85B01C462123DB0097
:100DF0009C4201D9002064E0FB680493324D2C74BE
:100E00000023EB6029720393EB80687101262E7139
:100E10002E482860200A6874080EE872080CA87230
:100E2000080A6872002C05D0284612301146224666
:100E300001F066FE2146123102912846FFF7ACFF11
:100E4000029968546918020ECA70020C8A70000A6E
:100E5000487004980228039833D3B8680390163476
:100E6000002002903246002C25D02878012300284B
:100E70000DD03146049EB142BCD20E46039988552E
:100E8000711C521CD0B2FF2804D00E460DE0019315
:100E9000314602E002200190FF2200930398029B5A
:100EA000C254019886190291009A641E6D1C049820
:100EB0008642D8D39EE7039902980A5400208855A9
:100EC000701C05B0F0BDC046D40600204150414E14
:100ED000F0B503AF85B011486D4629465CC85CC1CA
:100EE0000088088001208007FFF770FE002420465C
:100EF000294600F099FE204601F06EF82025084EA4
:100F0000002D08D0301900214023224601F060F95D
:100F10006D1E4034F4E705B0F0BDC046804B0000C4
:100F2000924B000080B500AF02480068302102F00B
:100F30000BF880BDF4070020F0B503AFA5B0019217
:100F400000240790002800D131E1002900D12EE1D2
:100F50000198002800D12AE102910020032800D145
:100F600092E0024601201040A321C900414391486C
:100F7000401806901820039250438F490818C189E1
:100F80000591014608310A91011D09910146103170
:100F90001091014614310F9101460C3108911190C6
:100FA0001630049000220598824268D00498008888
:100FB0000C905043069908180B9000210798139045
:100FC0000E920C98814255D00D910898008812908D
:100FD000504314900023184612998B421CD00F994D
:100FE0000C885C4313990C1910990D882E4614999E
:100FF0004E43119909688E19002D08D000216256C0
:101000007156514308186D1E641C761CF4E7149940
:10101000491C14915B1CDFE70E998C0009990D683F
:1010200002F0D0FD295903F0A9FA0A990968095973
:1010300002F0A4F804460025294602F057F80128DA
:101040000FDB20465D4902F06FF8002808D53F20ED
:101050000106204602F092F802F048FD054600E045
:101060007F250B980D9945541398801C1390491CAB
:101070000E9AA6E7FFF7D2FD0E9A521C93E703984B
:10108000401C0699079169E74D48A721002904D023
:1010900000220280491E801CF8E70026494B202EC2
:1010A0003DD01320129081010020079A139300294C
:1010B00008D0002415571C576C432018491E521C99
:1010C0005B1CF4E702F07EFD1496B6003E49895998
:1010D00003F054FA3D49895902F050F805460024BE
:1010E000214602F003F8002800D42C4638488159E4
:1010F000204603F043FA3749895902F03FF8C1030B
:10110000C90F401834494018000C149E71002C4A35
:10111000505212988001139B1B18761CBFE7FFF7F3
:101120007DFDFFF7D5FE2D48056825490020149068
:10113000024600F0E3FF2A4E01F01CF8444244410D
:10114000002805D0002E32D0FFF768FD761EF3E7A9
:10115000224802689542149802D2012109066D18AE
:10116000AA1A20490A6015AD294601F00BF8149A15
:1011700002990B461646202A17D014952888154642
:101180000A46010402C31393F0B28000105801F024
:10119000ADFF2A460028284600D43046149DAD1CD9
:1011A000521C06460299139BE5E7019806702046FB
:1011B00025B0F0BD46090020547D00000000FD422E
:1011C000F80700209C7D00009C1501001C16010002
:1011D0009C1601001C170100FF7F000018E000E0D2
:1011E000FEFF0000F407002080B500AF1F2801D9E2
:1011F000002080BDA7235B0043430248C018FFF7CF
:101200009BFE80BD9253000080B500AF0A49087074
:101210000A48FFF717FDFFF75BFE0948FFF740F8A4
:1012200008480949416000218160052101600748A3
:10123000FEF79AFF80BDC046A81900207813002051
:101240005112000010E000E0FFFFFF0061120000FB
:101250000248C168491CC1607047C046A8190020F7
:10126000D0B502AFC1B20A480A4AFFF7F3FC002822
:1012700003D0094CE078002800D0D0BD5B2082006C
:101280000648044901F03CFC0120E070D0BDC04696
:10129000781300207C160020A819002010150020CB
:1012A000F0B503AFA7B06F4E7078002800D0D6E03D
:1012B000B07800284CD00021B1706B4807AA78C8DC
:1012C00078C200781070694802AA78C878C200789D
:1012D00010706448C68800790090C0B2052909D012
:1012E00007AA52180346CB4001241C4030345470E6
:1012F000491CF3E70A25294601F026FE0446294643
:1013000003F05EFB30210191084307A9087309200F
:10131000C0436043009A80183030487306256C1E25
:101320000DD0B0B20A2101F00FFEF6214143891918
:10133000019A114302AA515525460646EFE70120BE
:1013400007A9FFF789FA112002A9FFF785FA454E90
:10135000F078002800D182E0454C2078162809D08A
:10136000022817D0142805D0012861D16168012016
:10137000424A1FE02589F16814281FD1002D0191F0
:1013800000D0A57AE8B207A902AAFFF72DFF00282E
:1013900022D14FE007AA2020507110710120D07097
:1013A0004E2191701070507030899071000AD07188
:1013B00061680220082300F063F84EE0A720400097
:1013C000854247D1019120460A3007A902AAFFF7BA
:1013D000B3FD00282ED0FE253146264E35700298EA
:1013E0007070C8680199411A0A204843224DA842EA
:1013F00000D328461B490881FFF794FDA84200D37B
:101400002846B070174909893171000AF070080A3E
:101410007071002080280FD0311807AA12588A71E5
:10142000130E4B72130C0B72120ACA71001DF1E7F6
:10143000022010E003200EE0616821200D4A86237F
:1014400000F01EF80298074E30713089F080307835
:10145000B07002E0012000F02DF80020F07027B0FD
:10146000F0BDC046A819002038270100242701003C
:101470001015002020190020FFFF0000492701005F
:10148000BCB504AF084C2725ED0000940195FFF78B
:10149000A9FC002807D001460448012242700248F6
:1014A000034AFEF74DFEBCBDE8170020A819002036
:1014B000D5140000E0B502AF01AA507004480178CD
:1014C0001170416871200223FFF7DAFF8CBDC0461E
:1014D0001015002080B500AF03480021417003487B
:1014E000FEF742FE80BDC046A81900206112000030
:1014F000FEE7D4D480B500AF00F02EF811481249B1
:1015000088420CD282680023002A06D030C8E458F2
:10151000EC50521E1B1D0838F6E70C30F0E70B4864
:101520000B4988420BD242680023002A05D0046888
:101530000025E550521E1B1DF7E70830F1E701F0CA
:10154000B9FCC046642701107027011070270110F4
:1015500070270110FEE7D4D40120C00301490860C0
:101560007047C04604000020F0B503AF81B02321CE
:101570004C0625680E4EFF2131600E49411820228D
:10158000204601F0BDFA00200090306020688021E4
:10159000014321602068402101432160022028404E
:1015A0002168014301200843206001B0F0BDC0461E
:1015B0005400004000000147D0B502AF82B0074C94
:1015C000FF232360064B0B400649591801F098FA97
:1015D00000200190206002B0D0BDC0465400004001
:1015E000FFFF0300000001470249088000204880F7
:1015F0007047C04608000020F0B503AFB1B0016AE3
:1016000006914169059181680491C1881A91818888
:101610000E9146881BA91CC81CC13CC83CC13CC8D3
:101620003CC10E9C1A9B002E00D1A7E01BA8028D86
:101630001192C28C0A92828C0392828B1692428BF8
:101640000992028B0292028A1592C28908928089BD
:1016500001900320C003199000200546079604E07E
:10166000A8B2079EB04200D388E0294605468035DF
:10167000B54201D8802600E0761A1BA94E80002CC6
:10168000EED003994143069A89180D91029941437E
:10169000059A89180C9101994843049940180B90B8
:1016A000002001460F95129605E0109988B20E9C15
:1016B000A0420F9DD4D2024680321092A24201D89D
:1016C000802200E0621A1BA914928A80002BECD0C1
:1016D0000A9941430D9A51181A91099941430C9A5C
:1016E00051181891089948430B99081817901498A5
:1016F000400013900024204604E0ACB23346B442CC
:101700002846D2D2254680359D4201D8802100E06E
:10171000191A1E461BA8C180002C1A9900D01999CD
:10172000239116996143189A511820911599614394
:10173000179A51181D9100F025F8002CDDD026A82D
:1017400002210185C184139A8284818341830283AB
:101750000182C18182810121C18014998180129905
:1017600041800749018019992B9111994C431A998D
:1017700061182E912891FFF73FFFBEE731B0F0BD11
:1017800001030000F0B503AF8EB001780902427882
:10179000120451184288120689180C910179C288E6
:1017A0001202511889B283681A0451180B91848966
:1017B00052490C40032292039D0815402C19C589FB
:1017C0000D401B0913405B191B041B190A93038A64
:1017D0000B4044692504EB180993038B0B40A508C3
:1017E0001540EB18458B0D4024091440641924045E
:1017F000E3180893838B0B40046A2504EB180793C6
:10180000A3081340858C0D405B1924091440C28C39
:101810000A40A2181204D2180692008D08400590C2
:10182000374908884988374BFF2201921A604901DD
:101830000818029082B234490C98505400925618FD
:10184000010EF170010CB170000A70700B983071CC
:101850000A9D3572099A3273089C34740799317560
:10186000069B03933376059B04933377030EF37142
:10187000030CB371224B000A7071280EF072280C11
:10188000B072280A7072100EF073100CB073100A48
:101890007073200EF074200CB074200A194C707410
:1018A000080EF075080CB075080A70750399080EDB
:1018B000F076080CB076080A70760499080EF07776
:1018C000080CB077080A707700200D9020605988C6
:1018D00000290ED0019921600C49009A5218491C28
:1018E0001140029A084D4A554919120A4A700D9042
:1018F00020605888401C58800EB0F0BDFF3F0000AB
:10190000080000205400004000000147FEFF0300D3
:10191000F0B503AF8BB00446684600250585022666
:10192000C6840682C581BD68C580FE688680438006
:10193000084B03807300838483836B008381089446
:1019400005920291012149040691FFF755FE0BB063
:10195000F0BDC04603020000B0B502AF8CB0044633
:1019600001A800250585022585840582C380828023
:10197000BA6842805200C28482838322920002802D
:1019800009940795069106490491F9683A69511836
:101990000122120489180391FFF72EFE0CB0B0BD8E
:1019A00002000200F0B503AF8BB004466846002584
:1019B00005850226C684868345830682C380BD686A
:1019C000858042806A0082845A00028383229200CA
:1019D00002800894059106490391F9683A69511803
:1019E0000122120489180291FFF706FE0BB0F0BD28
:1019F00002000200F0B503AF8BB004466846022532
:101A00000585C584858345830582C5810125C580FB
:101A1000FD688580BE6846800326467004706C00B1
:101A2000848404838481089105930292FFF7E4FD86
:101A30000BB0F0BDF0B503AF8DB001920A46014680
:101A400002A802260685C684002585830682C681F3
:101A50000126C680FE688680BC68448003244470EA
:101A600001707100818481810A9208950793019920
:101A70000491FFF7C1FD0DB0F0BDC046F0B503AF56
:101A8000A5B003920C910FAA022111820A91D18173
:101A900001210991D1808021019151700B9010702A
:101AA000002090831085BD68690091811590189081
:101AB000002B5ED089B2029103210891C9030791DE
:101AC00001460493069504E0059988B2049B984268
:101AD0004FD20A4601468031994205910E9201D8B3
:101AE000019900E0991A0FAA5180002DECD00299BB
:101AF0004843039940180D900020014620E0079DBF
:101B000017950FA8FFF73EFE1AA80A99018584834E
:101B1000018209994180089941700B990170164A18
:101B200023920C99229120941F95069D1D921C9141
:101B300012491B91FFF760FDB0B2A8423146C3D2F3
:101B400006468036AE4201D8802200E06A1A0FAB0A
:101B50009A800024149440000D9A101811900E9849
:101B600001430804CBD10C9817900FA8FFF70AFE89
:101B7000E2E725B0F0BDC04602000200010001000E
:101B800081B0002000900249086001B07047C04653
:101B9000540000400148FF2101607047540000409C
:101BA000D0B502AF82B0074CFF232360064B034041
:101BB0000648181800F0A4FF00200190206002B031
:101BC000D0BDC04654000040FFFF030000000147A5
:101BD000B0B502AF82B0074DFF202860012042045B
:101BE00005480024214601F0E1F801942C6002B080
:101BF000B0BDC0465400004000000147232040060D
:101C0000016802220A4302607047232040060168EF
:101C10000222914301607047232040060168402260
:101C20000A4302607047D4D4F0B503AF9DB0119160
:101C30000446122210466043DE4B1818099000F04B
:101C40005FFF03200F90C002A102081880B20E901F
:101C5000FFF7CAFC12A9002010900880D64EB01ED3
:101C600002252A46FFF79CFF7F20C00112A90880A9
:101C7000301F0D902A46FFF793FFD048B33012A9CA
:101C80000880B01F03902A46FFF78AFF12A9CB48AD
:101C90000880304608382A46FFF782FF12A9C84854
:101CA000088030460A382A46FFF77AFF12A9C5484D
:101CB000088030460C382A46FFF772FFBF20C0016B
:101CC00012A9088008946000301A1A3807902A4632
:101CD0000B95FFF765FF1198808812A90880B64C14
:101CE0000E3C20462A46FFF75BFF01250095019533
:101CF000072021462246109E3346FFF79BFE0095A3
:101D0000019509200C902146069422463346FFF7A0
:101D100091FE119EB08912A90880A74810380B9C2B
:101D20002246FFF73DFFF08912A90880A248123829
:101D30002246FFF735FF308A12A908809E4E143ED6
:101D400030462246FFF72CFF009501959A49163937
:101D500020460D9A33462E46974DFFF76BFE11989D
:101D6000C08812A9088028462246FFF719FF00966E
:101D700001960C9829462A46109BFFF75BFE0096B9
:101D8000109601960F9829462A462B46FFF752FED9
:101D90000E980546FFF7E8FB8B48232149060968A2
:101DA000490603D4411E00280846F6D109988188C7
:101DB0000F9144882846FFF717FC089D284600F03D
:101DC000CFFA0094019405200590410369430B204C
:101DD00000030B910918119103200C900A46764BD1
:101DE000FFF728FE0094109E0196BB204002E901F7
:101DF0000A180E92754811992346FFF789FD009441
:101E00000194724D803D28460E99119A3346FFF792
:101E10007FFD009601946E486C492A462346FFF7E1
:101E200077FD009401966A48861E304629460E9A30
:101E3000109BFFF76DFD109800901098019010987E
:101E4000314632460D9BFFF7D5FD10980090109853
:101E5000019009200025314632462B46FFF7CAFD86
:101E6000009401940C985A490A463346109EFFF795
:101E7000E1FD0094019402200C9011990A46544B04
:101E8000FFF7B8FD00940196504811990E9A0D94F1
:101E90002346FFF73DFD0F990998001D04905D2032
:101EA00080020E9000293BD00B98434A1018801CEA
:101EB0000B9048000A902DE0A0B2019069001191AA
:101EC0000E980A18424841490D9E3346FFF720FDFF
:101ED00012A80C9A0285C2840A9B8384828342835F
:101EE000610001830282C2818381109AC280848052
:101EF0004680384901800B99119BC91816461A91E2
:101F0000334A17921491FFF777FB4035ADB20F9922
:101F10008D4205D200964C1B402CCDDB4024CBE7F4
:101F20000598C001089D68437103401880B2049968
:101F30000C88FFF759FB284600F012FA0998407AFE
:101F400000281AD0009401960325284620490E9AAD
:101F50001346FFF74FFD0096304623463446079E52
:101F600031461B4AFFF78AFD00940194284631460A
:101F70003246039BFFF75EFD11E0009401960420BA
:101F80000023134D29460E9AFFF734FD0096304684
:101F900023463446079E31462A46FFF76FFD0094DC
:101FA0000194032031463246069BFFF743FD1DB0E6
:101FB000F0BDC0460C000020FE2F00004D3E00008A
:101FC000243C000080BF00001FA1070080770100B3
:101FD0000278010001030000F0B503AF87B00646A8
:101FE000252000020690FFF7FFFA12217143234AD1
:101FF000551868896B88515A0093019105214C034B
:102000007443324605961E4EA1190C3152000492BB
:102010008018401C82B20C2003903346FFF70AFD63
:1020200068896988009101910B2109036118049A5C
:102030001018801C82B203983346FFF7FBFC6888B7
:10204000012100900191BB2040020599C9010918A6
:10205000083603200A463346FFF7ECFC0698FFF7E4
:1020600083FA0848232149060968490603D4411E1A
:1020700000280846F6D107B0F0BDC0460C0000208D
:10208000F42F00001FA10700B0B502AF15460446AB
:10209000002909D012206043144A105A4004020C4F
:1020A00017200003FFF77CFD122060430F49002D2D
:1020B00008D0081880884004020C0D482946FFF714
:1020C0006FFD0AE00D18FFF765FDA888420009487A
:1020D000094900F015FDFFF753FD0320C002A102DE
:1020E000081880B2FFF740FAB0BDC0460C000020CF
:1020F000027801000278024700700247B0B502AFD3
:1021000015460446002909D012206043154A105A8A
:102110004004020C17200003FFF742FD1220604329
:102120001049002D08D0081880884004020C0E4881
:102130002946FFF735FD0AE00D18FFF72BFDA888AB
:1021400042000A480A4900F0DBFCFFF719FD0520B0
:10215000C001604301214903401880B2FFF704FA2F
:10216000B0BDC0460C000020027801000278024792
:10217000007002472320400600688109012088433F
:102180007047C04680B500AF0B4612214143054859
:10219000401880884004020CB92041021846FFF71D
:1021A0000BFA80BD0C000020D0B502AF82B0400019
:1021B0000549091A01AC02222046FFF7FDF900206B
:1021C000205E02B0D0BDC046E42F000070477047CB
:1021D000D0B502AF04460520400348431018032140
:1021E0000903401821461A46FFF7DAFCD0BDD0B5E6
:1021F00002AF044605204003484310180B21090391
:10220000401821461A46FFF7CBFCD0BD80B500AF81
:1022100017231B03C918FFF7CFF980BDD0B502AF54
:10222000052464034C4311190322120389181A462A
:10223000FFF7C2F9D0BDD0B502AF052464034C430B
:1022400011190B22120389181A46FFF7B5F9D0BDF0
:10225000F0B503AF87B01E4604910590D0017F21F1
:10226000C901081A06A908801B480222FFF798FC3A
:1022700017200503700082B2284604990492FFF7E4
:102280008FFC252000020390FFF7AEF90124009691
:1022900001940720002329462A46FFF7ABFB00964E
:1022A0000194032029462A460B4BFFF7C3FB0398F2
:1022B000FFF75AF90948232149060968490603D45A
:1022C000411E00280846F6D105982946049AFFF7D2
:1022D00073F907B0F0BDC046E62F00001FA107004C
:1022E000F0B503AF85B002920D460390252004029D
:1022F0002046FFF779F97F20C00104A90880124821
:102300000222FFF74DFC01200095019017200603E3
:102310000C203146029A0C4BFFF78CFB2046FFF74E
:1023200023F90A48232149060968490603D4411EB6
:1023300000280846F6D16804020C03983146FFF7DE
:102340003BF905B0F0BDC046FA2F00001FA1070001
:10235000004870470070024700487047007202470B
:10236000F0B503AF8DB0BB214A02C1018C18122217
:10237000079042434E498B5A8D18A8880990688867
:102380000C90E8890126F20317210903002808941C
:102390005CD00C9800900B9606460B98019045482F
:1023A0000593831F03200A90049143490692224615
:1023B000FFF740FB6889401D80B2009601900698A7
:1023C00002903E4821460B9A3346FFF7EBFA0096FF
:1023D0000B9801903748831E0A9838490A46FFF740
:1023E00029FB688935460B9E00950190069802905E
:1023F000204604993246059BFFF7D4FA00950196D2
:102400000A98214622462B4BFFF714FB00950196B4
:10241000304621462246294BFFF7ECFA079D284615
:1024200000F050F80C98009001962248031F0A987B
:1024300021462246FFF7FEFA0C980090019630469E
:10244000214622461C4BFFF7D5FA14E068890C9D03
:1024500000950190029220463246FFF7A3FA0095BC
:102460000196032021462246124BFFF7E3FA079D0F
:10247000284600F027F80C980090099C019405204C
:10248000400368430B490A181232B9204502284616
:1024900008993346FFF73CFA009401965D208102CB
:1024A0000220074A2B46FFF7A5FA0DB0F0BDC04643
:1024B0000C000020EE2F0000027A0100027C0100D7
:1024C00002780100F0B503AF83B0122141432C4ADA
:1024D0005218117A5688032936D0022928D00129AA
:1024E0004BD1012400960194BB214902C00145183B
:1024F0002448031F032029462A46FFF79BFA00962B
:1025000001942048831E204629462A46FFF792FA66
:10251000009601941B48831C062029462A46FFF793
:1025200089FA00960194052029462A46154B22E097
:10253000012100960191BB214902C00141181148B7
:10254000831C06200A4616E00121029100960191A3
:10255000BB214902C001441805200A4D21462246EC
:102560002B46FFF767FA009602980190083D062077
:10257000214622462B46FFF75DFA03B0F0BDC04668
:102580000C000020FA2F0000014908607047C04687
:10259000A800002080B500AF00F05CFA02480021DE
:1025A0004160816080BDC046A8000020BCB504AF7A
:1025B000234DE8680A281FD80124810001A2515840
:1025C0008F46C0463F260000F9250000192600006E
:1025D000F12500000B2600000F260000F525000065
:1025E000032600000726000017260000132600001F
:1025F000022411E005240FE0401E09281DD8002404
:102600000AE0062408E0072406E0032404E004248A
:1026100002E0092400E008242B68002B0DD001A95A
:102620006A4620469847401C07D00098C10F4018C2
:102630004110A21C019800F005F80020E860BCBD24
:10264000A8000020F8B504AF16460D460446104613
:1026500000F0CEF8002800D0F8BDF100024A891839
:1026600008398D800C60F8BD3000002080B500AFC7
:1026700000F0D0F805480021782200F097FB0120F7
:10268000C003034900F00EFA80BDC04630000020B0
:1026900095260000BCB504AF441E0F2C17D2394854
:1026A00000F028FA38484168002901D000228A80C9
:1026B0000122E100354B591841608260C268002A4E
:1026C00000D0BCBD89880029FBD1C460BCBD0028F6
:1026D00008D02B49884211D12A4800F00BFA00F0AB
:1026E000DDF8BCBD274800F005FA274841680029FD
:1026F000E7D0002282608A804260BCBD224DA8687B
:1027000002280AD0012823D168688488204600F076
:10271000F1F9002C26D0022026E068680068002429
:10272000005F1B49884200DB08461A49884200DCEA
:10273000084680B200F0DEF968680168891C016013
:102740008188491E81800804BBD16C60AC60BCBD2F
:1027500001A800F089F8012808D002280BD1094807
:10276000401C05E000206860A860BCBD0548801CD6
:1027700001A9088001E001A8008800F0BBF9BCBDF8
:1027800001800000FF7F0000A80000203000002032
:10279000FE7F00000280FFFFD0B502AF0C4940244D
:1027A0000C6000B20B49884200DB08460A498842A7
:1027B00000DC084680B2BFF34F8FBFF36F8F00F08D
:1027C00039F806490C60411E48424841D0BDC04618
:1027D00080E100E0FE7F00000280FFFF00E100E0FA
:1027E00080B500AF00F066F8411E4842484180BD08
:1027F00001460220012909DB0F2907D8481EC00025
:10280000034908188088002800D003207047C0467C
:102810003000002005480649002202700122920281
:102820008A1841608160C2607047C046B8040020C9
:10283000B80000200A490A78002A01D00120704718
:102840004A681080CB68901C984200D105484860C7
:102850008A68904201D000207047012008707047BC
:10286000B8040020B80000200A490A78002A01D0E4
:10287000012070474B688A68934209D0138803800F
:10288000CB68901C984200D10348886000207047B4
:1028900002207047B8040020B80000200348044913
:1028A00041608160002101707047C046B80400207B
:1028B000B8000020014800787047C046B8040020E6
:1028C000FEB506AF534D544EAE606E6000242C70C2
:1028D00001A80480012189027118E9600294FFF7C0
:1028E000C3FF0290022800D092E04C48FFF7A2FFFD
:1028F0000290002800D08BE001A8FFF7B5FF0290FE
:10290000002800D084E001A8FFF7AEFF0290022863
:102910007ED1A0B2FE2806D8FFF78CFF0290641C7F
:102920000028F6D074E028780290002870D13B4847
:10293000FFF780FF029000286AD0287802900128D3
:1029400066D13648FFF776FF0290002860D001A8D4
:10295000FFF78AFF029001285AD101A8FFF784FFF0
:102960000290012854D16E60AE6000242C70029455
:1029700001A8FFF779FF0290022849D12748FFF705
:1029800059FF0290002843D101A8FFF76DFF029084
:1029900000283DD101A8FFF767FF0290022837D138
:1029A000A0B2FF2806D2FFF745FF0290641C002862
:1029B000F6D02DE00025FF2D0CD201AC2046FFF70C
:1029C00053FF0290002823D1681C2188A9420546A4
:1029D000F1D01DE00024A0B2FF2809D22046FF302C
:1029E00080B2FFF727FF0290641C0028F3D00FE0AD
:1029F000002401A8FFF738FF0290FE2C08D8002819
:102A000006D1601CFF3401A90988A1420446F0D018
:102A1000FEBDC046B8040020B80000200110000030
:102A200080B500AF094801688AB24260084A12685E
:102A30000369002A05D02320C000014098B29047C6
:102A400080BD0121C903C16080BDC046100900419D
:102A5000C804002080B500AF01204004FEF7B6F89E
:102A60000A4940200860BFF34F8FBFF36F8F0849BA
:102A7000084A0A60FF210904074A13688B43136060
:102A8000064908600649086080BDC04680E100E054
:102A9000C80001401112111104E400E080E200E0DE
:102AA00000E100E0F0B503AF0F4A15681468012398
:102AB0009C4314601C021668264316601668A643E1
:102AC0001660ED0702D015681D431560074D1560AF
:102AD0005460D06150681F2404435460044801606E
:102AE000106818431060F0BD000900411406000092
:102AF000C8040020014908607047C0461C09004115
:102B0000F0B5DE4657464E464546E0B583B00F2A3F
:102B100000D87FE003252B0007240340E41A052C8E
:102B200004D906000E43354200D1DAE04D1C0E7880
:102B30002D78441C067025708C788470CC78C47015
:102B40000C790471032B09D04C794471022B05D008
:102B50008C798471012B01D0CC79C4710824A446EE
:102B6000DC1FA41862460325D31ACE182900314071
:102B70008A46C318621E2E4200D0B9E00F2A00D840
:102B80000CE1113C210988460F2C04D9190031436E
:102B9000490700D1D6E010274546BC46190034004D
:102BA0002D019C44AC4465684D60A5688D60E56866
:102BB000CD60256810340D6010316145F3D1474672
:102BC00001373C0131190F271B190C2417401442FF
:102BD00000D1E1E00A683C1F1A60032C09D90D1DE1
:102BE0001A1D2D6815603A00083A032A01D98A682F
:102BF0009A600322A4080134A4003A4009191B1961
:102C0000551E002A0AD103B0F0BCBB46B246A94605
:102C1000A046F0BD0300551E002AF4D0052D00D8B3
:102C200087E00C001C43A4073BD00C784E1C1C70A2
:102C30005D1C941E36782E70002CE4D08C789C702D
:102C4000032AE0D0CC78DC70042ADCD00C791C712B
:102C5000052AD8D04C795C71062AD4D08C799C7125
:102C6000072AD0D0CC79DC71082ACCD00C7A1C721F
:102C7000092AC8D04C7A5C720A2AC4D08C7A9C7219
:102C80000B2AC0D0CC7ADC720C2ABCD00C7B1C7313
:102C90000D2AB8D04C7B5C730E2AB4D08A7B9A7311
:102CA000B1E70C681C609408012C6AD04E685E6025
:102CB000032C01D18C689C6003241442A3D0A2434E
:102CC0008C189E182378AA1A3370611C731C551E29
:102CD000002A98D00A781A70002D94D0A378B37087
:102CE00091E70D680560062C44D04C68446035E7D8
:102CF0005446751A6146091B8C460421091BC900FC
:102D00008846E100894640CD34004946CC400195D3
:102D100040CD009431004446A1401F00009C043384
:102D20000C433C601400043A6245EDD20199651FE2
:102D300051440C781C70002D00D164E74E1C5D1CC2
:102D4000941E77E701244444B44619000027A146A5
:102D50006446E568A4688C60CD6064466568246854
:102D60000C604D601024A2460137D4441031B9459F
:102D7000EED824E70C7904714C7944718C79847114
:102D8000ECE61E1D0C1D042A00D13CE7951F0A79B4
:102D900005311A7105339DE73A003CE7350017000D
:102DA0001A00310040CD053C40C21AE7F0B5CE46CE
:102DB0004746050080B5830700D16EE0531E002A08
:102DC00056D004000326CAB202E00135013B4FD3BE
:102DD00001342A703442F8D1032B37D9FF250D4036
:102DE0002A025219150452190F2B59D91F00103FEE
:102DF0001F2F01D966073FD03F093E01B04610267C
:102E0000B44646462500A44466442A606A60AA6027
:102E1000EA601035AE42F8D101373D0164190F2543
:102E20000C261D401E402B00002E0FD02B1F2260B1
:102E3000032B05D92E00083E6260032E00D9A26044
:102E40009B0801339B00E41803232B405A1E002BE0
:102E50000ED0C9B22170002A0AD0023B5D426B41FC
:102E600061705B42012A03D0A170002B00D0E17099
:102E7000C0BCB946B046F0BD00263F09B0467E1C36
:102E80002500B4460126B146C8442A606A60AA609B
:102E9000EA601035E045F5D3BEE7040013009BE778
:102EA0001D00C3E70023C25C0133002AFBD1581E7A
:102EB0007047D4D410B5084A08490948FFF720FEE6
:102EC0000021084A0848FFF771FF00F00FF80021C1
:102ED0000800FDF7D5FAFEE7080000007027011092
:102EE00000000020B01900000800002070B50F4C51
:102EF000002C02D00E4D002D11D10E4C0E4B9C42D9
:102F000010D10E4B002B01D000F000F80C4C0D4BF3
:102F10009C4206D008CC9847F9E708CC9847A542D0
:102F2000FBD170BD08CC9847E8E7C0460000000020
:102F30000000000008000020080000200000000041
:102F40000800002008000020012925D300D1704787
:102F5000884201D200207047024684465FA00130BB
:102F6000130C8B4201D31A00A038130A8B4201D3F1
:102F70001A00503813098B4201D31A0028389308DD
:102F80008B4201D31A00143853088B4200D30A38FD
:102F90000200604600231047002080B501F0C2FD0A
:102FA00080BDC04600BFCA07904200D3801A5B4173
:102FB0008A07904200D3801A5B414A07904200D3AF
:102FC000801A5B410A07904200D3801A5B41CA060F
:102FD000904200D3801A5B418A06904200D3801A47
:102FE0005B414A06904200D3801A5B410A06904238
:102FF00000D3801A5B41CA05904200D3801A5B411E
:103000008A05904200D3801A5B414A05904200D362
:10301000801A5B410A05904200D3801A5B41CA04C2
:10302000904200D3801A5B418A04904200D3801AF8
:103030005B414A04904200D3801A5B410A049042EB
:1030400000D3801A5B41CA03904200D3801A5B41CF
:103050008A03904200D3801A5B414A03904200D316
:10306000801A5B410A03904200D3801A5B41CA0276
:10307000904200D3801A5B418A02904200D3801AAA
:103080005B414A02904200D3801A5B410A0290429F
:1030900000D3801A5B41CA01904200D3801A5B4181
:1030A0008A01904200D3801A5B414A01904200D3CA
:1030B000801A5B410A01904200D3801A5B41CA002A
:1030C000904200D3801A5B418A00904200D3801A5C
:1030D0005B414A00904200D3801A5B410A00904253
:1030E00000D3801A5B4118467047D4D440B54200E3
:1030F0004B005E08164301D006004E4000D4D01AA3
:1031000004D20120C90F06D1404204E003D90120B6
:10311000C90F00D04042FF263606B24200D8B34263
:1031200000D9012040BDC04640B542004B005E08BA
:10313000164301D006004E4000D4D01A04D201201C
:10314000C90F06D1404204E003D90120C90F00D0C5
:103150004042FF263606B24200D8B34201D90120D0
:10316000404240BD42004B000020FF2109068A4238
:1031700000D88B4200D901207047D4D4F0B542006A
:103180004B0052086FD05B086ED0D60DDF0DFF2EBE
:103190006AD0FF2F68D09A4205D2040015000800BB
:1031A0001A0021002B004402A4094D02AD0901269A
:1031B000B606D20D00D03443DB0D00D03543D61A0D
:1031C0000CD0002B00D1761E20239B1B2F009F408C
:1031D00000D00127F5403D4300D1012507004F40B5
:1031E000FF0F21D164190126F6062700374007D0CA
:1031F00027000126374064083C430132FF2A53D0A0
:10320000C00FC007D20510432100A401640A204367
:1032100007221140042906DB01D00130F0BD010076
:10322000490800D3401CF0BD641B1AD02600002AB8
:10323000E6D0B60EE4D10FB4200000F07FFB05000D
:103240000FBC6D1FAC40521BDADC0126B61A0022FF
:1032500020239B1B27009F4000D00127F4403C43C4
:10326000CEE70020F0BD5B08FF24E405A24217D89A
:10327000A34214D8A24205D141400126F607B1422B
:103280000ED0F0BDA34201D10800F0BDD41802D089
:10329000002A02D0F0BD0840F0BD0800F0BD0800D3
:1032A000012189050843F0BDFF24E4052043C00D3A
:1032B000C005F0BD10B584B0039102900193009257
:1032C000019B009A0399029800F002F804B010BD27
:1032D00010B5ACB029912890279326922999289867
:1032E00000F066FA259124902799269800F060FA5C
:1032F0002391229024992598FB4A104020912190F7
:103300002299239810401E911F902199209A002005
:10331000521E81410120C043801AF44888410AD3DB
:10332000FFE71F981E990022491E9041491CEF4952
:10333000884100D28FE021982099491EEC498841AC
:103340000CD3FFE72999289800F032FA0122D20421
:10335000114300F038FA2B912A901CE21F981E9915
:10336000491EE34988410CD3FFE72799269800F0CE
:103370001FFA0122D204114300F025FA2B912A9062
:1033800009E220982199DA4A51400843002823D1C4
:10339000FFE72999289800F00BFA089009912799DE
:1033A000269800F005FA034608980A4609995840FD
:1033B00051400122D20751400843002807D1FFE7BE
:1033C0000020FA4900F0FFF92B912A90E3E12898B8
:1033D00029992B912A90DEE11E981F99F04A5140BD
:1033E0000843002805D1FFE7269827992B912A90BA
:1033F000D1E1219920980843002820D1FFE71F99A7
:103400001E980843002815D1FFE72999289800F055
:10341000CFF9069007912799269800F0C9F903463D
:1034200006980A4607991840114000F0CCF92B91F4
:103430002A90B0E1269827992B912A90ABE11F9909
:103440001E980843002805D1FFE7289829992B9159
:103450002A90A0E1FFE71F991E9B2198209AD21A7B
:1034600088410DD2FFE7249825991D911C90229840
:103470002399259124901C981D9923912290FFE770
:1034800025984000400D1B9023984000400D1A9055
:1034900024992598C34A104018911990229923988D
:1034A0001040169117901B98002805D1FFE718A827
:1034B00000F094F91B90FFE71A98002805D1FFE768
:1034C00016A800F08BF91A90FFE725980122D10782
:1034D0000840002114911590259823994840C00F69
:1034E00013A90870199818994B0FC000C018C9008B
:1034F000D205104318911990179816994B0FC000D8
:10350000C018C9001043169117901B981A99401AB9
:1035100012901298002824D0FFE712983F281AD85A
:10352000FFE716981799129B4022D21A00F0CEF9A5
:103530000843411E884111A90591087016981799F2
:10354000129A00F043FC059A127801231A401043A6
:103550001791169004E00020179001201690FFE7C5
:10356000FFE713A80078C007002835D0FFE7179AB7
:10357000169B19981899C91A904118911990199980
:1035800018980843002807D1FFE70021084600F0FB
:103590001AF92B912A90FEE01998C00D00281AD133
:1035A000FFE71999189800F03FF904900120C10530
:1035B000002000F039F901460498401A1090109A42
:1035C0001898199900F082F91991189010991B9880
:1035D000401A1B90FFE723E0179A169B1998189939
:1035E000C91850411891199018A8C079C00700282F
:1035F00015D0FFE718A80078012318400FAA107013
:1036000018981999CC0740080019490812781A40EF
:103610001043199118901B98401C1B90FFE7FFE77F
:103620001B986149884209DBFFE7149815995C4AA9
:10363000114300F0C8F82B912A90ACE01B980028A9
:1036400021DCFFE71B9901200390401A0E90189887
:1036500019990E9B4022D21A00F038F90843411EF6
:1036600088410DA902910870189819990E9A00F0D6
:10367000ADFB029A039B12781A40104319911890DF
:1036800000201B90FFE71898072108400C9018981D
:1036900019994A07C00880184902090B0B910A9032
:1036A0001B9802050A990B9810430A910B90159AE2
:1036B000149B0B990A98184311430B910A9000F040
:1036C00081FB01460191032857D80198810002A08F
:1036D000415840188746C0461C00000054000000B6
:1036E0007A000000A0000000FFFFFF7FFFFFEF7FD8
:1036F0000000F07F0C98052808DBFFE70B980A997B
:103700000022491C50410A910B90FFE70C980428B5
:103710000BD1FFE70B980A9901220B4613400022B8
:10372000C91850410A910B90FFE726E015991498AB
:10373000084300280CD0FFE70C98002808D0FFE7CA
:103740000B980A990022491C50410A910B90FFE7FF
:1037500013E015991498084300280CD1FFE70C9842
:10376000002808D0FFE70B980A990022491C504115
:103770000A910B90FFE700E0FFE70C98002803D0C8
:10378000FFE700F021FBFFE70B990A9800F01BF818
:103790002B912A90FFE72A982B992CB010BDC04698
:1037A0000000F07FFFFF0F00FF0700000000F87F20
:1037B00084B00391029002980399019100900098BF
:1037C000019904B0704784B0039102900298039964
:1037D000019100900098019904B0704780B586B0BF
:1037E000059005984168006800F01EF800900120DF
:1037F00002900105002000F017F801460098401AD9
:103800000490049A059901910868496800F05EF8EF
:10381000019A0346029803930B4603995360116083
:103820000499401A06B080BD84B0019100900198BF
:1038300000281FD0FFE7019841080843810808438A
:1038400001090843010A0843010C0843C043410829
:103850001A4A1140411A1A4A084610408908114074
:103860004018010941181748014017484843000E05
:1038700003901FE0009841080843810808430109AC
:103880000843010A0843010C0843C04341080B4A9E
:103890001140411A0A4A0846104089081140401850
:1038A000010941180748014007484843000E2030ED
:1038B0000390FFE7039804B07047C046555555552F
:1038C000333333330F0F0F0F010101018AB007911A
:1038D0000690059220200490069807990391029083
:1038E00005A800788006002808D5FFE70020009092
:1038F0000298059920398840019016E00598002823
:1039000005D1FFE7069807990991089012E00298FF
:103910000599884000900398059B984002992022C1
:10392000D21AD14008430190FFE70098019909910C
:103930000890FFE7089809990AB0704786B005908B
:103940000598049004A8418809044A42514109019C
:103950000391039A10218A1A0499D1400491039982
:1039600002914078000241424841C000039003990F
:103970000820411A0498C8400490039902984018FE
:1039800002900498F0210840414248418000039091
:1039900003990420411A0498C8400490039902989E
:1039A0004018029004980C210840414248414000D0
:1039B000039003990220411A0498C8400490039987
:1039C000029840180290029800900499401A801CB6
:1039D00089070029019001D500980190019806B04F
:1039E0007047D4D480B582B00191009001990098BD
:1039F00000F002F802B080BD80B594B01191109033
:103A0000314804900F9001200390C0070E90119947
:103A1000109800F05FF8049A0D910C900C990D9895
:103A200010400A910B900D98C10F0020C04300294F
:103A3000059001D103980590039A059809900B9879
:103A4000000D2249401808900A990B98204B184005
:103A500012058018069107900898002803D5FFE703
:103A6000002013902CE0089820280DD3FFE7099937
:103A70000120C007019014480129029001D001984B
:103A80000290029813901BE00898332810DCFFE79F
:103A90000998009006980799089B3422D21A00F0E2
:103AA00095F9024600980B4600F006FD139007E0DA
:103AB00009990698089A343A904048431390FFE7D2
:103AC000139814B080BDC046FFFFFF7F01FCFFFFCD
:103AD000FFFF0F0084B003910290029803990191B7
:103AE00000900098019904B07047D4D480B582B09A
:103AF0000190019800F002F802B080BD80B58EB050
:103B00000C902A4803900B9001200290C0070A9065
:103B10000C9800F04FF80399099009980840089014
:103B20000998C10F0020C0430029049001D10298D8
:103B300004900299049807900898C00D7F38069069
:103B400008981B4A1040C90540180590069800289F
:103B500003D5FFE700200D9025E0069820280DD31F
:103B6000FFE707990120C007009010480129019044
:103B700001D00098019001980D9014E00698162845
:103B800009DCFFE707990598069B1722D21AD04057
:103B900048430D9007E007990598069A173A904018
:103BA00048430D90FFE70D980EB080BDFFFFFF7FEB
:103BB000FFFF7F0082B0019001980090009802B052
:103BC0007047D4D480B58AB0089020200790089818
:103BD000002805D1FFE7002000F084F8099074E088
:103BE00000200690089805900898002807D5FFE760
:103BF0000120C0070690059840420590FFE7059810
:103C0000410808438108084301090843010A0843A1
:103C1000010C0843C04341082D4A1140411A2D4A66
:103C200008461040890811404018010941182A48E7
:103C300001402A484843010E1F20401A049004986E
:103C400017280CDCFFE704991720401A029005980A
:103C5000029988400121C9054840039026E0049854
:103C60001738019005980199C8400121C9054840BD
:103C700003900598019A2021891A884000900098A5
:103C80001749884204D3FFE70398401C0390FFE7DD
:103C900000980121C907884207D1FFE70398012254
:103CA0000146114040180390FFE7FFE70498C00564
:103CB000039940187F21C90540180390039806997D
:103CC000084300F00FF80990FFE709980AB080BD9B
:103CD00055555555333333330F0F0F0F0101010184
:103CE0000100008082B0019001980090009802B01D
:103CF0007047D4D480B58AB00790202006900798EA
:103D0000002807D1FFE70021084600F04FF809918D
:103D100008903DE0079841080843810808430109DD
:103D20000843010A0843010C0843C04341081A4AEA
:103D30001140411A194A084610408908114040189C
:103D4000010941181648014016484843010E1F203A
:103D5000401A059005993420401A01900798019A5D
:103D60000021FFF7B3FD012212055140029003919B
:103D7000059800050399401802990B4A8018029192
:103D800003900399029800F011F809910890FFE759
:103D9000089809990AB080BD5555555533333333CA
:103DA0000F0F0F0F010101010000F03F84B00391DC
:103DB000029002980399019100900098019904B033
:103DC0007047D4D400207047002070478AB0079114
:103DD000069005922020049006980799039102907E
:103DE00005A800788006002808D5FFE7002001908C
:103DF000039805992039C840009016E005980028DE
:103E000005D1FFE7069807990991089012E00398F9
:103E10000599C84001900398059A2021891A884085
:103E20000299D14008430090FFE700980199099159
:103E30000890FFE7089809990AB0704710B584B058
:103E40000391029001930092019B009A03990298BA
:103E500000F002F804B010BD10B5A2B01F911E9082
:103E60001D931C921F991E9800F090F94800400D78
:103E70001B901D991C9800F089F94800400D1A907C
:103E80001F991E9800F082F905911D991C9800F069
:103E90007DF9059848400121C90708400021079194
:103EA000189119901F991E9800F070F9AF4A069268
:103EB0001140169017911D991C9800F067F9069B08
:103EC0000246079819401492159113901B98401EB2
:103ED000A749884206D8FFE71A98401EA54988429C
:103EE00000D2ABE01F991E9800F050F9A24A04924C
:103EF0001140109011911D991C9800F047F9049AF7
:103F000011400E900F9111981099491E9B498841BC
:103F10000CD3FFE71F991E9800F038F90122D20454
:103F2000114300F03EF9219120901BE10F980E996A
:103F3000491E924988410CD3FFE71D991C9800F057
:103F400025F90122D204114300F02BF92191209090
:103F500008E110981199894A51400843002818D166
:103F6000FFE70F990E98084300280BD0FFE711993F
:103F70001098199A189B1843114300F012F92191D7
:103F80002090EFE00020804900F00BF92191209073
:103F9000E8E00E980F99794A51400843002818D15B
:103FA000FFE711991098084300280BD0FFE70F99FD
:103FB0000E98199A189B1843114300F0F2F82191BA
:103FC0002090CFE00020704900F0EBF82191209084
:103FD000C8E0119910980843002807D1FFE7199904
:103FE000189800F0DEF821912090BBE00F990E9810
:103FF0000843002807D1FFE71999189800F0D1F875
:1040000021912090AEE01198000D002808D1FFE723
:1040100016A800F0D1F80146139840181390FFE756
:104020000F98000D002808D1FFE714A800F0C4F88D
:104030000146139840181390FFE7FFE717980121F6
:104040000905084317901598084315901799169875
:10405000159B149A540DDB021B19D2020AAC019471
:104060000CAC0394009400F0CDF803981B991A9AB5
:104070008918139A8918424A891809918079C006CB
:10408000002804D5FFE70998401C099005E00CA81A
:104090000AA9012200F006F9FFE709983949884288
:1040A00009DBFFE718981999344A114300F079F8B1
:1040B0002191209056E00998002815DCFFE7099926
:1040C0000120401A08900898402807D3FFE7199963
:1040D000189800F066F82191209043E0089A0CA807
:1040E0000AA900F00CF90BE00D98204908400D904A
:1040F000099802050C990D9810430C910D90FFE75B
:10410000199A189B0D990C98184311430D910C9016
:104110000B980A99491E1849484108D3FFE70D98A2
:104120000C990022491C50410C910D90FFE70A9810
:104130000B990122D2075140084300280BD1FFE719
:104140000D980C9901220B4613400022C9185041CA
:104150000C910D90FFE70D990C9800F022F8219139
:104160002090FFE72098219922B010BDFFFF0F009B
:10417000FD070000FE070000FFFFFF7F0000F07F4B
:1041800001FCFFFFFF0700000000F87F84B00391EF
:10419000029002980399019100900098019904B04F
:1041A000704784B0039102900298039901910090A6
:1041B0000098019904B0704780B586B005900598C5
:1041C0004168006800F026F9009001200290010586
:1041D000002000F01FF901460098401A0490049A4C
:1041E0000599019108684968FFF770FB019A034639
:1041F000029803930B460399536011600499401A87
:1042000006B080BD10B592B0159C149C1191109011
:104210000F930E9210980E9A00230193194600F006
:104220004BF9019B0D910C9010980F9A194600F0D4
:1042300043F9019B0B910A9011980E9A194600F0D0
:104240003BF9019B0991089011980F9A194600F0CB
:1042500033F90A460199079206900C98059104904B
:104260000D980A9A821808464041089BD218484186
:1042700002920390049B0598029A8018159A136085
:1042800050600B98099A821808464041039BD21847
:1042900048410799069BD218484114990A60486022
:1042A00012B010BD10B588B007900691059207991D
:1042B000039108684968059A0092FFF707FB009B85
:1042C000029001910699086849684022D21AFFF7C6
:1042D0007DFD019A044602980B46039920431A4338
:1042E0004A6008600699049108684968059AFFF7D2
:1042F000EDFA0A4604994A60086008B010BDB0B5EE
:104300008EB00D900C910B920B983F283BD8FFE795
:104310000C99086849680B9B40220192D21AFFF75A
:10432000D5FA019A0843411E88410AA904910870F0
:104330000D99086849680B9B0293D21AFFF7C6FAD9
:10434000029A059003910C99069108684968FFF755
:104350003DFD039A049B044605980D4606992A43A1
:1043600020431B780124234018434A6008600D99BC
:104370000791086849680B9AFFF728FD0A460799D4
:104380004A60086044E00B987F2828D8FFE70D9921
:10439000086849680B9B8022D21AFFF797FA0C9B9A
:1043A0001A685B68194310430843411E884109A9F4
:1043B000009108700D99086849680B9A403AFFF718
:1043C00005FD0A46009909780123194008430C9914
:1043D0004A6008600D9900204860086017E00D9859
:1043E000016840680C9B1A685B68184311430143DD
:1043F000481E814108A801700178012001400C9AF3
:104400000020506011600D9948600860FFE7FFE7E9
:104410000EB0B0BD84B001910090019800281FD06B
:10442000FFE7019841080843810808430109084350
:10443000010A0843010C0843C04341081A4A1140CD
:10444000411A1A4A084610408908114040180109CB
:1044500041181748014017484843000E03901FE0D9
:104460000098410808438108084301090843010AEC
:104470000843010C0843C04341080B4A1140411A4C
:104480000A4A08461040890811404018010941189D
:104490000748014007484843000E20300390FFE7DB
:1044A000039804B07047C0465555555533333333E0
:1044B0000F0F0F0F0101010110B58AB0099108908B
:1044C0000793069208980999059104900698079910
:1044D000039102900498029900F010F80191009065
:1044E000059902984843049A039951434118019849
:1044F00040180190009801990AB010BD10B588B01D
:1045000007900691102003901B48029007A803888B
:1045100006A90A885A43049204AB5A8801921A8861
:10452000049242880C885443019A12190192019A0C
:104530001404049A1219049201AA548805945C8800
:1045400001941B8804934B8804885C43019B1B19CE
:104550000193019B1C04049B1B1904935388059A27
:10456000D218059240884988414305984018059023
:104570000498059908B010BDFFFF000080B582B017
:10458000019000910099019800F002F802B080BDFE
:1045900080B594B012901191129800F035F9C00DC9
:1045A000C0B21090119800F02FF9C00DC0B20F905A
:1045B000129800F029F90390119800F025F90146AE
:1045C000039848400121C90708400E90129800F056
:1045D0001BF98849049108400D90119800F014F9D6
:1045E000049908400C9000200B901098401EFD2864
:1045F00005D8FFE70F98401EFE2800D283E01298EE
:1046000000F002F97C49029108400A90119800F0EC
:10461000FBF80299084009900A98784988420AD321
:10462000FFE7129800F0F0F801218905084300F037
:10463000F2F81390DAE00998704988420AD3FFE74C
:10464000119800F0E1F801218905084300F0E3F832
:104650001390CBE00A98FF21C905884210D1FFE7EB
:104660000998002807D0FFE70A980E99084300F040
:10467000D2F81390BAE0634800F0CDF81390B5E09B
:104680000998FF21C905884210D1FFE70A98002840
:1046900007D0FFE709980E99084300F0BCF8139083
:1046A000A4E0584800F0B7F813909FE00A9800285B
:1046B00005D1FFE70E9800F0AEF8139096E0099848
:1046C000002805D1FFE70E9800F0A5F813908DE0C3
:1046D0000A98C00D002808D1FFE70DA800F0A2F845
:1046E00001460B9840180B90FFE70998C00D002871
:1046F00008D1FFE70CA800F095F801460B98401888
:104700000B90FFE7FFE70D980121C90508430D90C5
:104710000C9808430C900D980C99090208AA019274
:1047200007AB00F09AF8019810990F9A89180B9A24
:1047300089187F39069180780006002804D5FFE7A4
:104740000698401C069005E008A807A9012200F081
:104750009AF8FFE70698FF2808DBFFE70E98FF218D
:10476000C905084300F057F813903FE00698002869
:1047700013DCFFE706990120401A059005982028D0
:1047800005D3FFE70E9800F046F813902EE0059A47
:1047900008A807A900F08EF809E008981549084014
:1047A00008900698C105089808430890FFE70E99FD
:1047B00008980843089007981149884204D3FFE7F6
:1047C0000898401C0890FFE707980121C907884214
:1047D00007D1FFE7089801220146114040180890D0
:1047E000FFE7089800F017F81390FFE7139814B04C
:1047F00080BDC046FFFF7F00FFFFFF7F0100807F7D
:10480000010000800000C07F82B0019001980090FC
:10481000009802B0704782B0019001980090009813
:1048200002B0704780B584B003900398006800F030
:104830009DF8009001200190C00500F097F80099C4
:1048400002460198891A0291029B039A11689940C5
:1048500011600299401A04B080BD80B586B0059001
:104860000491039202930598049A00231946FFF7D6
:1048700023FE019100900198039908600098029925
:10488000086006B080BD10B583B00290019100921F
:1048900002990868009CA040019A126820231B1B03
:1048A000DA401043086001990868009A9040086057
:1048B00003B010BD10B586B0059004910392039823
:1048C0001F281ED8FFE704980068039A20218A1A3F
:1048D0009040421E904102AA107005980068039C07
:1048E000091B884004990B68E340184312780123A0
:1048F0001A401043086005990868039AD040086080
:1049000032E003983F281CD8FFE705980068039A17
:104910004021891A8840049909680843411E88414A
:1049200001A9087005980068039A203AD0400978D8
:10493000012211400843049908600599002008608D
:1049400011E005980168049800680143481E814100
:1049500068460170007801210840049908600599B3
:1049600000200860FFE7FFE706B010BD81B00090AF
:104970000098410808438108084301090843010AD7
:104980000843010C0843C0434108094A1140411A39
:10499000084A08461040890811404018010941188A
:1049A0000548014005484843000E01B07047C04625
:1049B00055555555333333330F0F0F0F0101010197
:1049C00080B582B0019000910198009900F002F842
:1049D00002B080BD8BB00990089120200790089804
:1049E00000281FD0FFE708984108084381080843C2
:1049F00001090843010A0843010C0843C043410868
:104A0000444A1140411A444A08461040890811405E
:104A10004018010941184148014041484843000EEF
:104A2000029002E020200290FFE70298019009988E
:104A300000281FD0FFE70998410808438108084370
:104A400001090843010A0843010C0843C043410817
:104A5000304A1140411A304A084610408908114036
:104A60004018010941182D4801402D484843000EC7
:104A7000009002E020200090FFE701980099401A82
:104A800006900698202803D3FFE709980A903DE096
:104A900006981F2803D1FFE700200A9036E0069809
:104AA000401C069009980699C84005900699202058
:104AB000411A09988840099000200490FFE7069861
:104AC000002820D0FFE7059840000999C90F401839
:104AD00005900998400004990843099008990598A1
:104AE000C0434018C0170390039801210840049068
:104AF0000899039801400598401A0590FFE7069829
:104B0000401E0690DBE705980A90FFE70A980BB075
:104B10007047C04655555555333333330F0F0F0F7C
:104B20000101010181B00090009801B0704782B08E
:104B3000019100900098019902B07047496368693B
:104B400050696E6720726561647900D4003800395D
:104B500000140073005E006C000E003800010006B7
:104B60006400C8000500050001000100010001000B
:104B7000010001000100010001000100010001002D
:104B8000A70020002000803F01010100523E0000EC
:104B90000000DF3ED03DE0BC24BE1BBE413EDE3DFA
:104BA0007BBD773C05BE81BDBB3CC73D3ABFA73C42
:104BB00060BC893DB43EAF3EA93ECCBE53BDE03E95
:104BC000763E4A3F8D3DD8BE5C3C2A3D1EBE40BF6E
:104BD00011BF4D3E963EC93E84BB69BEE43E673D73
:104BE0003A3EA93D0B3F6DBEE5BDE8BDAA3E0EBFF6
:104BF0002FBE353DFF3E11BF043E223F933EF3BE24
:104C00006EBD243E45BFB33D043E99BE13BF043C78
:104C1000A3BEA2BE60BE2C3D2F3EA73E85BE853DF5
:104C2000A73E993E0D3C30BECDBEEFBCD33E113EFB
:104C3000693ED93E363F543CBA3E0ABF22BF6BBDE7
:104C400040BE94BE86BEE6BD42BEC13E273F9DBE6D
:104C5000FCBEBC3DF5BE15BF1EBFDA3DD13DB43C28
:104C6000B03DF53E6A3E5B3DCBBEB9BE4EBE2DBEED
:104C7000ABBE1BBED63CEABD393DFC3E0F3FD8BDA6
:104C8000A43E90BED3BE963EB23E9F3D163F00BEB0
:104C9000D53E8E3DA33C9C3E88BDC8BE923E74BEB0
:104CA00014BD4FBE6EBE1EBCABBDB33E94BB193F20
:104CB000933E0B3E763EAE3C40BFBBBEBD3EE6BE25
:104CC00065BDBE3E3ABF54BEA0BD81BEC03EF0BD74
:104CD000623F2A3F0FBEA03EC6BE603ED4BE0D3F1F
:104CE000E8BD8E3EB9BDAF3EA13EB9BDC7BD653F73
:104CF0001F3F09BF29BE28BFD33E143CC4BEAB3CF6
:104D0000F6BB223EE6BEA2BE03BFC13EEDBEFBBE69
:104D1000453E703EA83EA5BEBB3C233D87BDED3E53
:104D20003CBE37BF59BEBC3D33BE0A3CFE3DF23DE2
:104D3000C5BED43EAABDA83EE23E9CBE9F3EDFBD9E
:104D4000A9BEE7BED43E993D793FCFBDECBEADBE16
:104D5000C0BD88BE1A3DB93E5FBEB0BED93ECD3E95
:104D6000733EFC3EB9BE543EF6BEA43E913C0E3CA2
:104D7000CDBD883E00BF1DBFD4BE84BE4F3E8E3E1B
:104D8000D23EC0BDF03E633E133FE9BEF9BD89BED1
:104D9000B1BE613F71BE193F62BE5B3D0A3FD7BEE7
:104DA000113EC0BE06BCBEBD90BEAEBDDB3D2ABE40
:104DB0006EBEB9BEB2BCB8BE9E3C80BEDBBECC3DB2
:104DC00068BC02BF653F3ABE903E833DC2BD543FC2
:104DD00008BE063F9F3D27BFB33EC63EB7BD16BFC8
:104DE000333E2F3E1DBF23BEBF3EB43E2B3EB1BE61
:104DF0009A3ED83EF1BE82BE6EBD483EAA3E63BE1C
:104E0000A5BDBE3ED53DBFBE38BF083F2ABD403D13
:104E10002DBE8ABF203F8EBE9C3D433F053FB93D1E
:104E2000C4BC0A3E943D23BD673EAE3D27BEB1BE25
:104E30000BBF42BF843E4FBE683D8CBE953D26BE33
:104E400045BE9BBC1ABEFEBE1D3E3C3D3B3FC23E26
:104E5000EC3E923D163E393E1E3FAFBECDBEE13D1B
:104E6000833E0F3FDA3E3F3F223DD93E8A3E923E8F
:104E7000D2BE75BE35BFDCBD5FBD00BE42BC50BFFB
:104E80000DBE4EBECE3C9FBDA1BECDBE333E2FBE9D
:104E9000893EC7BE30BD23BFFC3D0ABF0C3F3CBDB1
:104EA0008B3E52BE253E573FB43E38BE72BEB13E29
:104EB00099BE313E113D9B3DD4BE983DB73E9F3ECD
:104EC0006FBE803D4F3D1DBF13BFB63D013EE23E6C
:104ED0006DBD01BFB83E063E00BDCBBE9EBE81BECD
:104EE000F3BE193FD63D50BE37BEE53E85BEDC3B26
:104EF000B63D0C3FF03EA7BE48BD813E023EA7BE78
:104F0000573ABDBD8E3EE9BE0B3D143EBDBC173EBB
:104F10005C3E083FAC3E2D3EF53D1BBECEBD39BECE
:104F2000C4BDBBBE06BF753EDB3D26BEEDBEE03D4B
:104F300070BE8A3ED9BD703CB53E98BE5DBE783E1F
:104F4000ABBED53D77BF473D263F553E563BB13EB4
:104F5000D03ECBBE4CBD17BFD9BDC5BE023EB83D8D
:104F60000A3EB6BE013D4A3CAC3D22BE1BBE563E8B
:104F7000EC3E49BEEFBD863E2CBDE3BE8BBE1A3E65
:104F8000843E183F153D4E3F15BE0EBDE0BD6B3F44
:104F900013BF1F3E303E153F463C3ABD33BE523E26
:104FA00096BE16BF6BBE73BEC03E7CBD46BE8BBCFC
:104FB000133DFBBEB03E863E2BBE33BEB73D6FBE3B
:104FC00088BEDE3EFF3E2F3F94BC50BFB03EA03CAB
:104FD00001BE33BC0DBEA13E0EBABFBEC73EB03D42
:104FE000463C0E3EDCBE31BE99BD3C3EEFBEA7BE88
:104FF000943B10BFAD3E133FD3BDA5BD0D3FDE3E7C
:10500000EF3DB2BE72BE883E3BBF3C3FD6BE313E96
:10501000583EDFBD98BE133F673E01BD75BE4CBF15
:1050200086BD573DC2BD4EBEEA3E77BE9B3D04BF26
:10503000823EA3BD5F3E59BED13E7CBE863D723BE3
:10504000163FA1BE103F4DBE54BDA6BD29BE203E99
:10505000DC3E403E99BEB9BD21BE5B3EF4BE203F62
:10506000563EA8BEA5BE9B3C0F3EFB3D0DBE95BE69
:10507000E83E2F3D233E2D3EF63CE03E3EBE1EBFA9
:105080001ABFCDBEAC3E92BE903E4D3F6EBDD43EEB
:1050900099BE113FC5BD0FBEFD3D86BE04BF3A3F60
:1050A000283E83BE243B4BBF9ABE36BE9ABEA9BEE5
:1050B00012BE953E13BC82BE9ABD863E68BE3E3E81
:1050C000743EDDBD1E3E5B3E063DA5BE503F733EB9
:1050D000BA3E71BE1EBFCD3E5DBE1B3FDEBEA03DD3
:1050E0001ABE513FB03E213E573E093FB2BD81BD81
:1050F000B3BEA43EC5BE333ECCBDFEBA55BFA03E36
:1051000099BD54BE933C063F7DBE0ABFAEBE083F6C
:10511000DC3CEE3D4B3F31BDE03D0D3EAE3D97BE2C
:1051200000BF81BDEFBE6CBDE1BEB4BE60BEF73E48
:10513000903B8BBEEABC82BE50BE5E3F8D3E813F3F
:10514000A03DE7BED03E01BD83BEEB3C733E87BEB3
:10515000CDBE22BEDFBD57BE253EEABC053E923D18
:10516000B43EAC3EEEBD893D353F183E0DBE99BE06
:10517000143FFF3E84BEBF3E87BEB43B30BEF13E0F
:10518000EDBEF6BE10BD05BF923EFBBE8C3DBDBE62
:10519000A7BDFFBD17BE403CC3BEC23E6CBE9ABE9B
:1051A0009B3E0CBD3F3DAD3ECFBE2DBF513E913E1F
:1051B0009D3DC83D58BE883F913EDB3EBA3DD7BEBF
:1051C000083E32BE1BBE003E95BEBBBE123FC3BDF5
:1051D000CCBE41BE86BE09BE8A3E7E3FA5BD083E0E
:1051E000BEBEEABE7D3E263E6BBD27BE973EEBBCF3
:1051F00030BE913E7C3ED8BED9BE00BF513E12BFEC
:10520000CD3EA23EA63EA43D56BE883ECDBD943DB9
:1052100019BD973E12BDF9BE1D3E67BEC7BE44BF55
:10522000A5BE5E3C803E633EAA3EE53D553E473E00
:10523000F73B1ABFA03ECBBDC43EECBD06B9943EC1
:10524000C53D0EBFB9BD503FDA3E84BEBD3D82BEF6
:10525000043ECFBD093EC1BE29BE353EBF3D2EBE78
:10526000AFBD00BE6D3E1FBFFABD023F053F2C3EE5
:1052700034BE09BE3C3DA73E0F3F0DBB963E193ED6
:10528000B53E3B3E8F3DF6BE88BE9DBE8FBED6BEB0
:105290003D3D6DBE8FBE073DCF3E5BBE9A3E9CBE80
:1052A000143F0EBE2BBD89BED6BE733EBE3DC93D6A
:1052B00086BE65BE2ABE333E48BE603F3FBEB3BC1D
:1052C000B53D2A3F703D203C923E8C3D1DBFFEBE49
:1052D000293EF6BE82BE0A3EE0BE01BF06BEEB3BE3
:1052E0003FBE823EA43E40BEB43EB7BDE53ED0BE0A
:1052F000593E97BD0C3E413D0B3E81BD2CBE193E33
:1053000084BE303F53BEEE3EA43DE43E273E62BE27
:105310008ABE27BEAD3E6EBE31BD9F3E163F873E64
:105320004FBC873EDE3EC0BDDCBD28BFDF3D623CDA
:10533000BF3EB93EE8BECB3DD9BEE4BECEBE55BEF3
:105340001ABE73BE613E6A3E903DD73E17BF0DBF89
:10535000373F58BE2D3BA43EAC3E0FBDC4BE8B3E76
:10536000C7BE37BFF83E2E3E8AB98CBE063F65BD2C
:10537000C4BDA93D26BF413E18BED73E443DA03E18
:10538000453EBE3EF3BED4BD593D8D3D89BE133F63
:10539000FFBEDEDDE8EEF2F1EDE7DFDCDEE5E5DEC7
:1053A000E0E6EEF8F7ECE2DAD3D0D3D7DBDDDBD8FA
:1053B000D8DADAD9D8D6D5D3D0D0D2D3D6D5D3D19E
:1053C000CECFCFCECFD0D0CECECECFCDCCCED0D0F4
:1053D000CECBCBCAC8CACED5D0CDCCCDD6DADBDECB
:1053E000F4040B06FBEFE9E5E2E7F40512191A17DE
:1053F0001D28302D282526252424272B2C2C2A282F
:10540000221E181819120A02FBFD051012110F09AD
:1054100004FBEAD0C7F00B0D04FEFAFAFF0D150CE1
:10542000010001FCF5EEE5D5C0B8BABFC9D2D9DD9F
:10543000E2E6E9EBEDEEECEAE8E8E8E9EAEBF0F8C1
:105440000310130AFBF2ECE5E2E3ECECECE8E4E435
:10545000E3E4E6E6E4DBD4D1CFD1DCE3E2E6EDF44D
:10546000F0EEF1F2EEE8E2DAD9D7D6D6D5D8DBDD28
:10547000E0E8F0F8FAF9F5F2ECE9E4E3DED8D1D0AF
:10548000D5E1EAF1F6F8FC00030404050708080773
:1054900005050505060A0D0E0E0B04FEF9F2F1F3E3
:1054A000F6F5F3F2F0ECE8E7E5E5E4E3E2E1DFDB73
:1054B000D8D6D3D1D0D0D0CFD0D4DADCDDDEDEDE8A
:1054C000DDDADBDCDEE2E1E3E5E8EBECEEEFF2F87F
:1054D000FE000809080503030406090C1014181936
:1054E0001A191B1F23221F1B161213151108122431
:1054F0002F38372B1E130F0E0D0C0B0A080A0A0942
:1055000008080808090807090D0E0C080400FDFC2E
:10551000FBFBFBFCFEFFF8F5F7F9FC0002060702B7
:10552000FDFF050F151F24221508FCF4E7D8DADC6F
:10553000DAE5FAF8E2D0C9C3C3C5C9CAC8C0BFE436
:105540000B18100A04FAF4F3F4F0EAE3E3EAF7FDC7
:1055500000060D110C090B1425343430291D1206D8
:10556000F2EB0C3031241813161C252B29231910AB
:105570000802FEF8ECD8C8C8D1D7E0E7EEF5FD0385
:105580000808070601FBF7F4F4F5F6F8FA04152D00
:1055900042422D20160F0B0F1209F7E2CFC3CADBD0
:1055A000F70F1F25221C140B02F5F4FB06101D2516
:1055B0002720160C060100FFFAF6F3F4F8FD061D8D
:1055C0003D5F726A5747382C0FF8E6D0BAADB0BECF
:1055D000C6CCCCCBCDCECDCAC6C5C6C3B9B0ADB393
:1055E000C7DBF10D223641433E3B393633312F2E96
:1055F0002C2B2A292725242322211F1C1A18171691
:10560000120E0A08040201FFFDF9F5ECE2D2BCA675
:105610009A8E8F9DA2AFBDC5C5C4C5C2BEC2CACC3D
:10562000CDC9C4C1BFC0CBD0D4DAE80014240DFF6B
:10563000DFCCC7CFD7E0DED4D0CCCAD3D5D6DDEC13
:10564000EEE9E5DED6D2D4D8DDDFDDD9DCDFE0E37C
:10565000E3DBD4CCCBCCCDD1DADAD7D8D7D4D2D304
:10566000D4D5D9DED8CECECCC9CCCFD1D0CFCECB2D
:10567000C8C5C6CEDDDAC2B1B1B8BDCEF4FBFF14E9
:105680001E0F243D1D0A0A111C2B2F1D070C232F52
:10569000251D18161D2427221D14111934434644B4
:1056A000433C2E11F0E1DCDFDBCCBDAF998181CC36
:1056B000677F7F7F7F7F6B6A7F7F7F7F5B331A0D82
:1056C000FFEFC58181818181839BA9B2BBC0C3C823
:1056D000CACBCACCCCD0D0D1D4DDE906160AF8E3C7
:1056E000B9BAE50E1F1B0AF4DAD0D3E1F80510179A
:1056F0001408F8CF848181818193C6E9F90A1819C9
:1057000010FFF1DDD3CABCAA92828DA0D11C4F6BD1
:10571000430BE8E0F4F7E3D7D0CDCBD0DAE6EDF1F8
:10572000F4F4F8FDFFFBF0E2D0B7A8A8B6D81A450C
:10573000595447362B272324231F1E202424211CA1
:1057400017100802FDF9F5F4F4F4F3F1EFEBDECBFA
:10575000BBB2ACADAFB2B8BCBAB7BABBBFC3C9CDB0
:10576000CED5D4D3D5D9DADBDBDEE0E1E3E5EBEB74
:10577000F60507090902FBFF1027281B25221B1825
:1057800018191917110D0D0F0AFF06162432342BA4
:1057900020150F0D0B0A0A0906080B0A090807064F
:1057A000050404070A0C0B0703FFFDFBFAFAFAFBDA
:1057B000FDFDF7F5F7F8FAFE01040601FCFE040E04
:1057C00012191B1A1307FCF7ECDCDADDDCE3F6F543
:1057D000E4D3CBC7C7C8CBCED2D3CCDBFF0E0903F3
:1057E000FEFAF9F9F6EFE8E0E0E6F2F9FF08152035
:1057F000211C14131C25221C150C03F5EA072B4A47
:105800004837261D1E232B3231291809000001FBC1
:10581000E8CEBABAC6D0DCE4EBF2FAFF0303030227
:10582000FDF8F4F1F1F1F1F0F0FD14344F4E2D1AC2
:105830000F0D0D111209F5DEC8BDCCE2FE15252CA9
:10584000291A05F1E2D4D7ED0010212C2F2B2116B7
:105850000F0601FCF7F1EFF0F3F80421476E7F6CBF
:105860004D362C260EF9E6D0BAADB0BEC7CCCDCBA6
:10587000CDCECCC9C4C1C2BEB4ACAAB1C8DDF61489
:105880002A3E4948413E3C3834322F2D2A292827C8
:10589000252321201F1E1D1B19171614100B070589
:1058A0000200FDF9F5F1EDE3DACDBAA69B8E929EEA
:1058B000A4AFBBC3C3C2C4C1BDBFC5C7C7C3C3C6F2
:1058C000C6C4CAC9C7CBDBFA13250406FEF8F8F62E
:1058D000EBE0DDDCDEE0E3F4EBE8F2FBF8EDE2D94F
:1058E000D5D4D7DADEE0E2DEDADCDDDEDDDDDBD604
:1058F000CFCED1D4DADDDBD8D1CFD2D3D2D3D7DD5E
:10590000D7CECFCFCECED1D3D4D2D1D1CECFD0D08F
:10591000C9C3C1BBC4D0DBDCD0D0E10022241E143B
:10592000FE010E181F231F1411162B392C25252AB2
:10593000303228201D1F2B383E2E0F010410161068
:105940000400060F0F07F4D5BB9685E94C7F7F7FD7
:105950006A564D577D7F7F6E493122180EF7C48CF1
:10596000818181818F9FA7AAAFB7BFC7CACDCECF94
:10597000CED1CDC9C8D0DAFA13111E2F13FBF1E531
:10598000D4CAD7E7F8FCFDFEF9F8FF07FAD2B1BC9C
:10599000D7F601F0DBCCD5DEC6BDC0C5C7C5C3B2E6
:1059A000A7A09C9C9E9E9FA1B0D7002B3D2D1A10B6
:1059B00008FFE6DBD7D6D3D2D5E0E8EFF4F5F5F370
:1059C000F2EFEDEBE9E3DCDBE1F20F21231B1A1B25
:1059D0001E2124292E2D2B2C2C2B261F180F0500C1
:1059E000FFFFFDFCF8F4EFE9E9E7DBCDC5C1BEBF81
:1059F000C0C4CCD3D4D6D7D0C4BEC2CAD2DBDDE3B8
:105A0000E3E1E2E2E4E5E8ECEEF1F2EEEBEAE7E412
:105A1000ECF2F7FB051D31352022222324221D192B
:105A2000120E10120F090D1B2B3735291D14100DE6
:105A30000B0B0B0A070608070607070707050507EC
:105A40000A0B0A0603FFFCFAFAFAFAFBFEFFF9F565
:105A5000F7F8FBFE000405FFFCFF030A101B2120E2
:105A60001407FAF2E5D9D8D7D8E3F6F1E0D8D3CEC7
:105A7000CBCBD1D4D0C7C9EB0E180B01F9F6F5F496
:105A8000F0EBE7E3E7EEFC0304070B0D0C0C0C1442
:105A90002433312A1D0D01F3F81832494330221FF7
:105AA00021242B32312C22170A01FBF2E4D2C1BE91
:105AB000C4CAD4DCE5EEF6FBFF020503FDF7F2EE07
:105AC000EDECEFF3F402172A3E45301F140E090CDB
:105AD0000F08F9E5CFC2CCE2FC1220241E150D09F7
